{
  "contractName": "ExchangeV2",
  "abi": [
    {
      "anonymous": false,
      "inputs": [
        {
          "indexed": false,
          "internalType": "bytes32",
          "name": "hash",
          "type": "bytes32"
        }
      ],
      "name": "Cancel",
      "type": "event"
    },
    {
      "anonymous": false,
      "inputs": [
        {
          "indexed": false,
          "internalType": "bytes32",
          "name": "leftHash",
          "type": "bytes32"
        },
        {
          "indexed": false,
          "internalType": "bytes32",
          "name": "rightHash",
          "type": "bytes32"
        },
        {
          "indexed": false,
          "internalType": "uint256",
          "name": "newLeftFill",
          "type": "uint256"
        },
        {
          "indexed": false,
          "internalType": "uint256",
          "name": "newRightFill",
          "type": "uint256"
        }
      ],
      "name": "Match",
      "type": "event"
    },
    {
      "anonymous": false,
      "inputs": [
        {
          "indexed": true,
          "internalType": "bytes4",
          "name": "assetType",
          "type": "bytes4"
        },
        {
          "indexed": false,
          "internalType": "address",
          "name": "matcher",
          "type": "address"
        }
      ],
      "name": "MatcherChange",
      "type": "event"
    },
    {
      "anonymous": false,
      "inputs": [
        {
          "indexed": true,
          "internalType": "address",
          "name": "previousOwner",
          "type": "address"
        },
        {
          "indexed": true,
          "internalType": "address",
          "name": "newOwner",
          "type": "address"
        }
      ],
      "name": "OwnershipTransferred",
      "type": "event"
    },
    {
      "anonymous": false,
      "inputs": [
        {
          "indexed": false,
          "internalType": "uint256",
          "name": "oldValue",
          "type": "uint256"
        },
        {
          "indexed": false,
          "internalType": "uint256",
          "name": "newValue",
          "type": "uint256"
        }
      ],
      "name": "ProtocolFeeChanged",
      "type": "event"
    },
    {
      "anonymous": false,
      "inputs": [
        {
          "indexed": true,
          "internalType": "bytes4",
          "name": "assetType",
          "type": "bytes4"
        },
        {
          "indexed": false,
          "internalType": "address",
          "name": "proxy",
          "type": "address"
        }
      ],
      "name": "ProxyChange",
      "type": "event"
    },
    {
      "inputs": [
        {
          "components": [
            {
              "internalType": "address",
              "name": "maker",
              "type": "address"
            },
            {
              "components": [
                {
                  "components": [
                    {
                      "internalType": "bytes4",
                      "name": "assetClass",
                      "type": "bytes4"
                    },
                    {
                      "internalType": "bytes",
                      "name": "data",
                      "type": "bytes"
                    }
                  ],
                  "internalType": "struct LibAsset.AssetType",
                  "name": "assetType",
                  "type": "tuple"
                },
                {
                  "internalType": "uint256",
                  "name": "value",
                  "type": "uint256"
                }
              ],
              "internalType": "struct LibAsset.Asset",
              "name": "makeAsset",
              "type": "tuple"
            },
            {
              "internalType": "address",
              "name": "taker",
              "type": "address"
            },
            {
              "components": [
                {
                  "components": [
                    {
                      "internalType": "bytes4",
                      "name": "assetClass",
                      "type": "bytes4"
                    },
                    {
                      "internalType": "bytes",
                      "name": "data",
                      "type": "bytes"
                    }
                  ],
                  "internalType": "struct LibAsset.AssetType",
                  "name": "assetType",
                  "type": "tuple"
                },
                {
                  "internalType": "uint256",
                  "name": "value",
                  "type": "uint256"
                }
              ],
              "internalType": "struct LibAsset.Asset",
              "name": "takeAsset",
              "type": "tuple"
            },
            {
              "internalType": "uint256",
              "name": "salt",
              "type": "uint256"
            },
            {
              "internalType": "uint256",
              "name": "start",
              "type": "uint256"
            },
            {
              "internalType": "uint256",
              "name": "end",
              "type": "uint256"
            },
            {
              "internalType": "bytes4",
              "name": "dataType",
              "type": "bytes4"
            },
            {
              "internalType": "bytes",
              "name": "data",
              "type": "bytes"
            }
          ],
          "internalType": "struct LibOrder.Order",
          "name": "order",
          "type": "tuple"
        }
      ],
      "name": "cancel",
      "outputs": [],
      "stateMutability": "nonpayable",
      "type": "function"
    },
    {
      "inputs": [],
      "name": "defaultFeeReceiver",
      "outputs": [
        {
          "internalType": "address",
          "name": "",
          "type": "address"
        }
      ],
      "stateMutability": "view",
      "type": "function"
    },
    {
      "inputs": [
        {
          "components": [
            {
              "internalType": "uint256",
              "name": "tokenBidAmount",
              "type": "uint256"
            },
            {
              "internalType": "uint256",
              "name": "tokenAcceptAmount",
              "type": "uint256"
            },
            {
              "internalType": "uint256",
              "name": "priceBid",
              "type": "uint256"
            },
            {
              "internalType": "uint256",
              "name": "priceAccept",
              "type": "uint256"
            },
            {
              "internalType": "uint256",
              "name": "salt",
              "type": "uint256"
            },
            {
              "internalType": "address",
              "name": "buyer",
              "type": "address"
            },
            {
              "internalType": "bytes4",
              "name": "nftClass",
              "type": "bytes4"
            },
            {
              "internalType": "bytes",
              "name": "nftData",
              "type": "bytes"
            },
            {
              "internalType": "bytes",
              "name": "paymentData",
              "type": "bytes"
            },
            {
              "internalType": "bytes",
              "name": "bidOrderData",
              "type": "bytes"
            },
            {
              "internalType": "bytes",
              "name": "acceptOrderData",
              "type": "bytes"
            },
            {
              "internalType": "bytes",
              "name": "signature",
              "type": "bytes"
            }
          ],
          "internalType": "struct LibDirectTransfer.AcceptBid",
          "name": "direct",
          "type": "tuple"
        }
      ],
      "name": "directAcceptBid",
      "outputs": [],
      "stateMutability": "payable",
      "type": "function"
    },
    {
      "inputs": [
        {
          "components": [
            {
              "internalType": "uint256",
              "name": "tokenSellAmount",
              "type": "uint256"
            },
            {
              "internalType": "uint256",
              "name": "tokenPurchaseAmount",
              "type": "uint256"
            },
            {
              "internalType": "uint256",
              "name": "priceSell",
              "type": "uint256"
            },
            {
              "internalType": "uint256",
              "name": "pricePurchase",
              "type": "uint256"
            },
            {
              "internalType": "uint256",
              "name": "salt",
              "type": "uint256"
            },
            {
              "internalType": "address",
              "name": "seller",
              "type": "address"
            },
            {
              "internalType": "bytes4",
              "name": "nftClass",
              "type": "bytes4"
            },
            {
              "internalType": "bytes4",
              "name": "paymentClass",
              "type": "bytes4"
            },
            {
              "internalType": "bytes",
              "name": "nftData",
              "type": "bytes"
            },
            {
              "internalType": "bytes",
              "name": "paymentData",
              "type": "bytes"
            },
            {
              "internalType": "bytes",
              "name": "sellOrderData",
              "type": "bytes"
            },
            {
              "internalType": "bytes",
              "name": "purchaseOrderData",
              "type": "bytes"
            },
            {
              "internalType": "bytes",
              "name": "signature",
              "type": "bytes"
            }
          ],
          "internalType": "struct LibDirectTransfer.Purchase",
          "name": "direct",
          "type": "tuple"
        }
      ],
      "name": "directPurchase",
      "outputs": [],
      "stateMutability": "payable",
      "type": "function"
    },
    {
      "inputs": [
        {
          "internalType": "address",
          "name": "",
          "type": "address"
        }
      ],
      "name": "feeReceivers",
      "outputs": [
        {
          "internalType": "address",
          "name": "",
          "type": "address"
        }
      ],
      "stateMutability": "view",
      "type": "function"
    },
    {
      "inputs": [
        {
          "internalType": "bytes32",
          "name": "",
          "type": "bytes32"
        }
      ],
      "name": "fills",
      "outputs": [
        {
          "internalType": "uint256",
          "name": "",
          "type": "uint256"
        }
      ],
      "stateMutability": "view",
      "type": "function"
    },
    {
      "inputs": [
        {
          "components": [
            {
              "internalType": "address",
              "name": "maker",
              "type": "address"
            },
            {
              "components": [
                {
                  "components": [
                    {
                      "internalType": "bytes4",
                      "name": "assetClass",
                      "type": "bytes4"
                    },
                    {
                      "internalType": "bytes",
                      "name": "data",
                      "type": "bytes"
                    }
                  ],
                  "internalType": "struct LibAsset.AssetType",
                  "name": "assetType",
                  "type": "tuple"
                },
                {
                  "internalType": "uint256",
                  "name": "value",
                  "type": "uint256"
                }
              ],
              "internalType": "struct LibAsset.Asset",
              "name": "makeAsset",
              "type": "tuple"
            },
            {
              "internalType": "address",
              "name": "taker",
              "type": "address"
            },
            {
              "components": [
                {
                  "components": [
                    {
                      "internalType": "bytes4",
                      "name": "assetClass",
                      "type": "bytes4"
                    },
                    {
                      "internalType": "bytes",
                      "name": "data",
                      "type": "bytes"
                    }
                  ],
                  "internalType": "struct LibAsset.AssetType",
                  "name": "assetType",
                  "type": "tuple"
                },
                {
                  "internalType": "uint256",
                  "name": "value",
                  "type": "uint256"
                }
              ],
              "internalType": "struct LibAsset.Asset",
              "name": "takeAsset",
              "type": "tuple"
            },
            {
              "internalType": "uint256",
              "name": "salt",
              "type": "uint256"
            },
            {
              "internalType": "uint256",
              "name": "start",
              "type": "uint256"
            },
            {
              "internalType": "uint256",
              "name": "end",
              "type": "uint256"
            },
            {
              "internalType": "bytes4",
              "name": "dataType",
              "type": "bytes4"
            },
            {
              "internalType": "bytes",
              "name": "data",
              "type": "bytes"
            }
          ],
          "internalType": "struct LibOrder.Order",
          "name": "orderLeft",
          "type": "tuple"
        },
        {
          "internalType": "bytes",
          "name": "signatureLeft",
          "type": "bytes"
        },
        {
          "components": [
            {
              "internalType": "address",
              "name": "maker",
              "type": "address"
            },
            {
              "components": [
                {
                  "components": [
                    {
                      "internalType": "bytes4",
                      "name": "assetClass",
                      "type": "bytes4"
                    },
                    {
                      "internalType": "bytes",
                      "name": "data",
                      "type": "bytes"
                    }
                  ],
                  "internalType": "struct LibAsset.AssetType",
                  "name": "assetType",
                  "type": "tuple"
                },
                {
                  "internalType": "uint256",
                  "name": "value",
                  "type": "uint256"
                }
              ],
              "internalType": "struct LibAsset.Asset",
              "name": "makeAsset",
              "type": "tuple"
            },
            {
              "internalType": "address",
              "name": "taker",
              "type": "address"
            },
            {
              "components": [
                {
                  "components": [
                    {
                      "internalType": "bytes4",
                      "name": "assetClass",
                      "type": "bytes4"
                    },
                    {
                      "internalType": "bytes",
                      "name": "data",
                      "type": "bytes"
                    }
                  ],
                  "internalType": "struct LibAsset.AssetType",
                  "name": "assetType",
                  "type": "tuple"
                },
                {
                  "internalType": "uint256",
                  "name": "value",
                  "type": "uint256"
                }
              ],
              "internalType": "struct LibAsset.Asset",
              "name": "takeAsset",
              "type": "tuple"
            },
            {
              "internalType": "uint256",
              "name": "salt",
              "type": "uint256"
            },
            {
              "internalType": "uint256",
              "name": "start",
              "type": "uint256"
            },
            {
              "internalType": "uint256",
              "name": "end",
              "type": "uint256"
            },
            {
              "internalType": "bytes4",
              "name": "dataType",
              "type": "bytes4"
            },
            {
              "internalType": "bytes",
              "name": "data",
              "type": "bytes"
            }
          ],
          "internalType": "struct LibOrder.Order",
          "name": "orderRight",
          "type": "tuple"
        },
        {
          "internalType": "bytes",
          "name": "signatureRight",
          "type": "bytes"
        }
      ],
      "name": "matchOrders",
      "outputs": [],
      "stateMutability": "payable",
      "type": "function"
    },
    {
      "inputs": [],
      "name": "owner",
      "outputs": [
        {
          "internalType": "address",
          "name": "",
          "type": "address"
        }
      ],
      "stateMutability": "view",
      "type": "function"
    },
    {
      "inputs": [],
      "name": "protocolFee",
      "outputs": [
        {
          "internalType": "uint256",
          "name": "",
          "type": "uint256"
        }
      ],
      "stateMutability": "view",
      "type": "function"
    },
    {
      "inputs": [],
      "name": "renounceOwnership",
      "outputs": [],
      "stateMutability": "nonpayable",
      "type": "function"
    },
    {
      "inputs": [],
      "name": "royaltiesRegistry",
      "outputs": [
        {
          "internalType": "contract IRoyaltiesProvider",
          "name": "",
          "type": "address"
        }
      ],
      "stateMutability": "view",
      "type": "function"
    },
    {
      "inputs": [
        {
          "internalType": "bytes4",
          "name": "assetType",
          "type": "bytes4"
        },
        {
          "internalType": "address",
          "name": "matcher",
          "type": "address"
        }
      ],
      "name": "setAssetMatcher",
      "outputs": [],
      "stateMutability": "nonpayable",
      "type": "function"
    },
    {
      "inputs": [
        {
          "internalType": "address payable",
          "name": "newDefaultFeeReceiver",
          "type": "address"
        }
      ],
      "name": "setDefaultFeeReceiver",
      "outputs": [],
      "stateMutability": "nonpayable",
      "type": "function"
    },
    {
      "inputs": [
        {
          "internalType": "address",
          "name": "token",
          "type": "address"
        },
        {
          "internalType": "address",
          "name": "wallet",
          "type": "address"
        }
      ],
      "name": "setFeeReceiver",
      "outputs": [],
      "stateMutability": "nonpayable",
      "type": "function"
    },
    {
      "inputs": [
        {
          "internalType": "uint64",
          "name": "_protocolFee",
          "type": "uint64"
        }
      ],
      "name": "setProtocolFee",
      "outputs": [],
      "stateMutability": "nonpayable",
      "type": "function"
    },
    {
      "inputs": [
        {
          "internalType": "contract IRoyaltiesProvider",
          "name": "newRoyaltiesRegistry",
          "type": "address"
        }
      ],
      "name": "setRoyaltiesRegistry",
      "outputs": [],
      "stateMutability": "nonpayable",
      "type": "function"
    },
    {
      "inputs": [
        {
          "internalType": "bytes4",
          "name": "assetType",
          "type": "bytes4"
        },
        {
          "internalType": "address",
          "name": "proxy",
          "type": "address"
        }
      ],
      "name": "setTransferProxy",
      "outputs": [],
      "stateMutability": "nonpayable",
      "type": "function"
    },
    {
      "inputs": [
        {
          "internalType": "address",
          "name": "newOwner",
          "type": "address"
        }
      ],
      "name": "transferOwnership",
      "outputs": [],
      "stateMutability": "nonpayable",
      "type": "function"
    },
    {
      "inputs": [
        {
          "internalType": "address",
          "name": "_transferProxy",
          "type": "address"
        },
        {
          "internalType": "address",
          "name": "_erc20TransferProxy",
          "type": "address"
        },
        {
          "internalType": "uint256",
          "name": "newProtocolFee",
          "type": "uint256"
        },
        {
          "internalType": "address",
          "name": "newDefaultFeeReceiver",
          "type": "address"
        },
        {
          "internalType": "contract IRoyaltiesProvider",
          "name": "newRoyaltiesProvider",
          "type": "address"
        }
      ],
      "name": "__ExchangeV2_init",
      "outputs": [],
      "stateMutability": "nonpayable",
      "type": "function"
    }
  ],
  "bytecode": "0x608060405234801561001057600080fd5b5061577680620000216000396000f3fe6080604052600436106101145760003560e01c80636d8f0694116100a0578063e2864fe311610064578063e2864fe3146102ba578063e66db25e146102da578063e92b1004146102fa578063e99a3f801461030d578063f2fde38b1461032057610114565b80636d8f069414610246578063715018a61461025b5780638da5cb5b14610270578063b0e21e8a14610285578063b39deb461461029a57610114565b806330c642f1116100e757806330c642f1146101be5780633abf6fd4146101de5780633be89922146101f35780634271d47d1461021357806343bc42d31461022657610114565b806302097ab1146101195780631372a6251461014f5780631cdfe3d81461017157806320158c4414610191575b600080fd5b34801561012557600080fd5b506101396101343660046148cd565b610340565b60405161014691906150a0565b60405180910390f35b34801561015b57600080fd5b5061016f61016a366004614b5a565b61035c565b005b34801561017d57600080fd5b5061016f61018c3660046148cd565b610430565b34801561019d57600080fd5b506101b16101ac366004614c0d565b6104b5565b6040516101469190615129565b3480156101ca57600080fd5b5061016f6101d9366004614c41565b6104c8565b3480156101ea57600080fd5b50610139610598565b3480156101ff57600080fd5b5061016f61020e3660046148cd565b6105a8565b61016f610221366004614c5e565b61062d565b34801561023257600080fd5b5061016f610241366004615030565b61091e565b34801561025257600080fd5b506101396109cb565b34801561026757600080fd5b5061016f6109db565b34801561027c57600080fd5b50610139610a87565b34801561029157600080fd5b506101b1610a96565b3480156102a657600080fd5b5061016f6102b5366004614c41565b610a9d565b3480156102c657600080fd5b5061016f6102d5366004614f1f565b610b61565b3480156102e657600080fd5b5061016f6102f5366004614b22565b610c22565b61016f610308366004614ff8565b610cb3565b61016f61031b366004614f51565b610f59565b34801561032c57600080fd5b5061016f61033b3660046148cd565b610f75565b610164602052600090815260409020546001600160a01b031681565b600054610100900460ff16806103755750610375611078565b80610383575060005460ff16155b6103be5760405162461bcd60e51b815260040180806020018281038252602e8152602001806156b0602e913960400191505060405180910390fd5b600054610100900460ff161580156103e9576000805460ff1961ff0019909116610100171660011790555b6103f1611089565b6103f961112b565b6104038686611224565b61040e8484846112ce565b6104166113aa565b8015610428576000805461ff00191690555b505050505050565b61043861147a565b6001600160a01b0316610449610a87565b6001600160a01b031614610492576040805162461bcd60e51b81526020600482018190526024820152600080516020615721833981519152604482015290519081900360640190fd5b61016380546001600160a01b0319166001600160a01b0392909216919091179055565b61012f6020526000908152604090205481565b6104d061147a565b6001600160a01b03166104e1610a87565b6001600160a01b03161461052a576040805162461bcd60e51b81526020600482018190526024820152600080516020615721833981519152604482015290519081900360640190fd5b6001600160e01b031982166000818152609760205260409081902080546001600160a01b0319166001600160a01b038516179055517f4b5aced933c0c9a88aeac3f0b3b72c5aaf75df8ebaf53225773248c4c31535939061058c9084906150a0565b60405180910390a25050565b610163546001600160a01b031681565b6105b061147a565b6001600160a01b03166105c1610a87565b6001600160a01b03161461060a576040805162461bcd60e51b81526020600482018190526024820152600080516020615721833981519152604482015290519081900360640190fd5b61016280546001600160a01b0319166001600160a01b0392909216919091179055565b600060405180604001604052808360c001602081019061064d9190614c25565b6001600160e01b031916815260200161066960e085018561551e565b8080601f0160208091040260200160405190810160405280939291908181526020018383808284376000920182905250939094525050604080518082019091526322ba176160e21b8152929350919050602081016106cb61010086018661551e565b8080601f01602080910402602001604051908101604052809392919081815260200183838082843760009201829052509390945250506040805180820182528681528735602080830191909152825180840184528881528982013581830152835180850185528781528a850135818401528451808601865288815260608c013593810193909352845161012081019095529697509195919450909290918061077960c08b0160a08c016148cd565b6001600160a01b03168152602081018590526000604082018190526060820188905260808b8101359083015260a0820181905260c0820152630d8c66fb60e11b60e0820152610100016107d06101208b018b61551e565b8080601f01602080910402602001604051908101604052809392919081815260200183838082843760009201829052509390945250506040805161012081019091529293509190508061082161147a565b6001600160a01b0316815260208101879052600060408201819052606082018690526080820181905260a0820181905260c0820152632fa3cfd360e01b60e0820152610100016108756101408c018c61551e565b8080601f01602080910402602001604051908101604052809392919081815260200183838082843760009201919091525050509152509050610909826108bf6101608c018c61551e565b8080601f01602080910402602001604051908101604052809392919081815260200183838082843760009201829052506040805160208101909152908152879350915061147e9050565b610913828261152a565b505050505050505050565b61092661147a565b6001600160a01b0316610937610a87565b6001600160a01b031614610980576040805162461bcd60e51b81526020600482018190526024820152600080516020615721833981519152604482015290519081900360640190fd5b7fb51bef650ff5ad43303dbe2e500a74d4fd1bdc9ae05f046bece330e82ae0ba8761016154826040516109b4929190615507565b60405180910390a16001600160401b031661016155565b610162546001600160a01b031681565b6109e361147a565b6001600160a01b03166109f4610a87565b6001600160a01b031614610a3d576040805162461bcd60e51b81526020600482018190526024820152600080516020615721833981519152604482015290519081900360640190fd5b6033546040516000916001600160a01b0316907f8be0079c531659141344cd1fd0a4f28419497f9722a3daafe3b4186f6b6457e0908390a3603380546001600160a01b0319169055565b6033546001600160a01b031690565b6101615481565b610aa561147a565b6001600160a01b0316610ab6610a87565b6001600160a01b031614610aff576040805162461bcd60e51b81526020600482018190526024820152600080516020615721833981519152604482015290519081900360640190fd5b6001600160e01b031982166000818152606560205260409081902080546001600160a01b0319166001600160a01b038516179055517fd2bf91075f105d0fd80328da28e20ebdad1c1261839711183bc29a44cbe6c72f9061058c9084906150a0565b80516001600160a01b0316610b7461147a565b6001600160a01b031614610ba35760405162461bcd60e51b8152600401610b9a90615477565b60405180910390fd5b6080810151610bc45760405162461bcd60e51b8152600401610b9a90615228565b6000610bcf826117aa565b600081815261012f6020526040908190206000199055519091507fe8d9861dbc9c663ed3accd261bbe2fe01e0d3d9e5f51fa38523b265c7757a93a90610c16908390615129565b60405180910390a15050565b610c2a61147a565b6001600160a01b0316610c3b610a87565b6001600160a01b031614610c84576040805162461bcd60e51b81526020600482018190526024820152600080516020615721833981519152604482015290519081900360640190fd5b6001600160a01b0391821660009081526101646020526040902080546001600160a01b03191691909216179055565b600060405180604001604052808360c0016020810190610cd39190614c25565b6001600160e01b0319168152602001610cf061010085018561551e565b8080601f01602080910402602001604051908101604052809392919081815260200183838082843760009201829052509390945250506040805180820190915292935091905080610d48610100860160e08701614c25565b6001600160e01b0319168152602001610d6561012086018661551e565b8080601f01602080910402602001604051908101604052809392919081815260200183838082843760009201829052509390945250506040805180820182528681528735602080830191909152825180840184528881528982013581830152835180850185528781528a850135818401528451808601865288815260608c0135938101939093528451610120810190955296975091959194509092909180610e1360c08b0160a08c016148cd565b6001600160a01b03168152602081018790526000604082018190526060820186905260808b8101359083015260a0820181905260c0820152632fa3cfd360e01b60e082015261010001610e6a6101408b018b61551e565b8080601f016020809104026020016040519081016040528093929190818152602001838380828437600092018290525093909452505060408051610120810190915292935091905080610ebb61147a565b6001600160a01b0316815260208101859052600060408201819052606082018890526080820181905260a0820181905260c0820152630d8c66fb60e11b60e082015261010001610f0f6101608c018c61551e565b8080601f01602080910402602001604051908101604052809392919081815260200183838082843760009201919091525050509152509050610909826108bf6101808c018c61551e565b610f658484848461147e565b610f6f848361152a565b50505050565b610f7d61147a565b6001600160a01b0316610f8e610a87565b6001600160a01b031614610fd7576040805162461bcd60e51b81526020600482018190526024820152600080516020615721833981519152604482015290519081900360640190fd5b6001600160a01b03811661101c5760405162461bcd60e51b815260040180806020018281038252602681526020018061561b6026913960400191505060405180910390fd5b6033546040516001600160a01b038084169216907f8be0079c531659141344cd1fd0a4f28419497f9722a3daafe3b4186f6b6457e090600090a3603380546001600160a01b0319166001600160a01b0392909216919091179055565b600061108330611933565b15905090565b600054610100900460ff16806110a257506110a2611078565b806110b0575060005460ff16155b6110eb5760405162461bcd60e51b815260040180806020018281038252602e8152602001806156b0602e913960400191505060405180910390fd5b600054610100900460ff16158015611116576000805460ff1961ff0019909116610100171660011790555b8015611128576000805461ff00191690555b50565b600054610100900460ff16806111445750611144611078565b80611152575060005460ff16155b61118d5760405162461bcd60e51b815260040180806020018281038252602e8152602001806156b0602e913960400191505060405180910390fd5b600054610100900460ff161580156111b8576000805460ff1961ff0019909116610100171660011790555b60006111c261147a565b603380546001600160a01b0319166001600160a01b038316908117909155604051919250906000907f8be0079c531659141344cd1fd0a4f28419497f9722a3daafe3b4186f6b6457e0908290a3508015611128576000805461ff001916905550565b60976020527f4532fa16f071d6234e30e1a1e69b9806f04095edf37a1ca7a25c8d6af7861cc080546001600160a01b039283166001600160a01b0319918216179091557f30a684095c937b5aa064dcf94f9903a7d808e3efb22d8389dbd43080ad4ed3d5805493909216928116831790915563025ceed960e61b6000527f4b5822151ea34b7c8d9e37c3e466bcecb631efe6a9f26a4a4054110a93dd316f80549091169091179055565b600054610100900460ff16806112e757506112e7611078565b806112f5575060005460ff16155b6113305760405162461bcd60e51b815260040180806020018281038252602e8152602001806156b0602e913960400191505060405180910390fd5b600054610100900460ff1615801561135b576000805460ff1961ff0019909116610100171660011790555b61016184905561016380546001600160a01b038086166001600160a01b0319928316179092556101628054928516929091169190911790558015610f6f576000805461ff001916905550505050565b600054610100900460ff16806113c357506113c3611078565b806113d1575060005460ff16155b61140c5760405162461bcd60e51b815260040180806020018281038252602e8152602001806156b0602e913960400191505060405180910390fd5b600054610100900460ff16158015611437576000805460ff1961ff0019909116610100171660011790555b6111166040518060400160405280600881526020016745786368616e676560c01b815250604051806040016040528060018152602001601960f91b815250611939565b3390565b61148884846119fa565b61149282826119fa565b60408401516001600160a01b0316156114de5783604001516001600160a01b031682600001516001600160a01b0316146114de5760405162461bcd60e51b8152600401610b9a9061540c565b60408201516001600160a01b031615610f6f5783600001516001600160a01b031682604001516001600160a01b031614610f6f5760405162461bcd60e51b8152600401610b9a90615310565b6000806115378484611a11565b91509150600061154685611aaa565b9050600061155385611aaa565b9050600061156b878785604001518560400151611c93565b90506000806116cc6040518060a0016040528060405180604001604052808b8152602001876000015181525081526020018760000151815260200187602001518152602001609760008b600001516001600160e01b0319166001600160e01b031916815260200190815260200160002060009054906101000a90046001600160a01b03166001600160a01b031681526020018b600001516001600160a01b03168152506040518060a0016040528060405180604001604052808b8152602001886020015181525081526020018760000151815260200187602001518152602001609760008b600001516001600160e01b0319166001600160e01b031916815260200190815260200160002060009054906101000a90046001600160a01b03166001600160a01b031681526020018b600001516001600160a01b03168152506116c78a600001518a600001518e60e001518e60e001518c8c611e13565b611e76565b885191935091506001600160e01b0319166355575f5d60e11b141561175b5785516001600160e01b0319166355575f5d60e11b141561170a57600080fd5b8134101561172a5760405162461bcd60e51b8152600401610b9a9061544f565b813411156117565761175661173f3484611f85565b61174761147a565b6001600160a01b031690611fe7565b610913565b85516001600160e01b0319166355575f5d60e11b141561091357803410156117955760405162461bcd60e51b8152600401610b9a9061544f565b803411156109135761091361173f3483611f85565b60e08101516000906001600160e01b031916632611a13360e11b14806117de575060e08201516001600160e01b0319908116145b156118535781516020830151516117f49061207f565b6060840151516118039061207f565b846080015160405160200180856001600160a01b0316815260200184815260200183815260200182815260200194505050505060405160208183030381529060405280519060200120905061192e565b81516020830151516118649061207f565b6060840151516118739061207f565b846080015185610100015160405160200180866001600160a01b0316815260200185815260200184815260200183815260200180602001828103825283818151815260200191508051906020019080838360005b838110156118df5781810151838201526020016118c7565b50505050905090810190601f16801561190c5780820380516001836020036101000a031916815260200191505b5096505050505050506040516020818303038152906040528051906020012090505b919050565b3b151590565b600054610100900460ff16806119525750611952611078565b80611960575060005460ff16155b61199b5760405162461bcd60e51b815260040180806020018281038252602e8152602001806156b0602e913960400191505060405180910390fd5b600054610100900460ff161580156119c6576000805460ff1961ff0019909116610100171660011790555b825160208085019190912083519184019190912060c99190915560ca5580156119f5576000805461ff00191690555b505050565b611a03826120e9565b611a0d82826121b3565b5050565b611a19614424565b611a21614424565b602084015151606084015151611a379190612488565b80519092506001600160e01b031916611a625760405162461bcd60e51b8152600401610b9a906153e0565b606084015151602084015151611a789190612488565b80519091506001600160e01b031916611aa35760405162461bcd60e51b8152600401610b9a906153e0565b9250929050565b611ab261443c565b60e08201516001600160e01b031916632611a13360e11b1415611af3576000611adf8361010001516124c8565b805183526020908101519083015250611c7a565b60e08201516001600160e01b0319166323d235ef60e01b1415611b40576000611b208361010001516124e4565b805183526020808201519084015260409081015115159083015250611c7a565b60e08201516001600160e01b031916632fa3cfd360e01b1415611bad576000611b6d836101000151612500565b9050611b7c816000015161251c565b825260208101516040820151611b92919061257e565b60208301526001604083015260609081015190820152611c7a565b60e08201516001600160e01b031916630d8c66fb60e11b1415611c11576000611bda8361010001516126e1565b9050611be9816000015161251c565b825260208101516040820151611bff919061257e565b60208301525060006040820152611c7a565b60e08201516001600160e01b03199081161415611c2d57611c7a565b6040805162461bcd60e51b815260206004820152601760248201527f556e6b6e6f776e204f7264657220646174612074797065000000000000000000604482015290519081900360640190fd5b80515161192e578151611c8c906126fd565b8152919050565b611c9b614466565b6000611ca6866117aa565b90506000611cb3866117aa565b90506000611cc5886080015184612798565b90506000611cd7886080015184612798565b90506000611ce98a8a85858c8c6127bd565b905060008160200151118015611cff5750805115155b611d1b5760405162461bcd60e51b8152600401610b9a90615380565b60808a015115611d6e578715611d4d578051611d38908490612845565b600086815261012f6020526040902055611d6e565b6020810151611d5d908490612845565b600086815261012f60205260409020555b608089015115611dc1578615611da3576020810151611d8e908390612845565b600085815261012f6020526040902055611dc1565b8051611db0908390612845565b600085815261012f60205260409020555b602081015181516040517f956cd63ee4cdcd81fda5f0ec7c6c36dceda99e1b412f4a650a5d26055dc3c45092611dfc92899289929190615132565b60405180910390a19450505050505b949350505050565b611e1b614480565b611e248561289f565b8152611e3087876128ec565b81604001906002811115611e4057fe5b90816002811115611e4d57fe5b81525050611e6785858585856040015186600001516129bd565b60208201529695505050505050565b8251602090810151835190910151600183604001516002811115611e9657fe5b1415611ee057611eb0858585600001518660200151612b73565b9150611edb846000015160000151856000015160200151866080015188602001518860600151612def565b611f7d565b600283604001516002811115611ef257fe5b1415611f3757611f0c848685600001518660200151612b73565b9050611edb856000015160000151866000015160200151876080015187602001518960600151612def565b845180516020918201516080880151928701516060890151611f5a949190612def565b835180516020918201516080870151928801516060880151611f7d949190612def565b935093915050565b600082821115611fdc576040805162461bcd60e51b815260206004820152601e60248201527f536166654d6174683a207375627472616374696f6e206f766572666c6f770000604482015290519081900360640190fd5b508082035b92915050565b6040516000906001600160a01b0384169083908381818185875af1925050503d8060008114612032576040519150601f19603f3d011682016040523d82523d6000602084013e612037565b606091505b50509050806119f5576040805162461bcd60e51b815260206004820152600f60248201526e1d1c985b9cd9995c8819985a5b1959608a1b604482015290519081900360640190fd5b8051602091820151805190830120604080517f452a0dc408cb0d27ffc3b3caff933a5208040a53a9dbecd8d89cad2c0d40e00c818601526001600160e01b031990931683820152606080840192909252805180840390920182526080909201909152805191012090565b60a081015115806120fd5750428160a00151105b61214e576040805162461bcd60e51b815260206004820152601d60248201527f4f726465722073746172742076616c69646174696f6e206661696c6564000000604482015290519081900360640190fd5b60c081015115806121625750428160c00151115b611128576040805162461bcd60e51b815260206004820152601b60248201527f4f7264657220656e642076616c69646174696f6e206661696c65640000000000604482015290519081900360640190fd5b60808201516122515781516001600160a01b0316156122385781516001600160a01b03166121df61147a565b6001600160a01b031614612233576040805162461bcd60e51b815260206004820152601660248201527536b0b5b2b91034b9903737ba103a3c1039b2b73232b960511b604482015290519081900360640190fd5b61224c565b61224061147a565b6001600160a01b031682525b611a0d565b81516001600160a01b031661226461147a565b6001600160a01b031614611a0d57600061227d83612f73565b905060008251604114156122a15761229e8361229884613063565b906130af565b90505b83516001600160a01b038281169116146124415783516122c9906001600160a01b0316611933565b15612405578351630b135d3f60e11b906001600160a01b0316631626ba7e6122f085613063565b866040518363ffffffff1660e01b81526004018083815260200180602001828103825283818151815260200191508051906020019080838360005b8381101561234357818101518382015260200161232b565b50505050905090810190601f1680156123705780820380516001836020036101000a031916815260200191505b50935050505060206040518083038186803b15801561238e57600080fd5b505afa1580156123a2573d6000803e3d6000fd5b505050506040513d60208110156123b857600080fd5b50516001600160e01b031916146124005760405162461bcd60e51b815260040180806020018281038252602b815260200180615685602b913960400191505060405180910390fd5b61243c565b60405162461bcd60e51b81526004018080602001828103825260228152602001806156636022913960400191505060405180910390fd5b610f6f565b83516001600160a01b0316610f6f576040805162461bcd60e51b815260206004820152600860248201526737379036b0b5b2b960c11b604482015290519081900360640190fd5b612490614424565b600061249c8484613125565b80519091506001600160e01b0319166124c1576124b98385613125565b915050611fe1565b9050611fe1565b6124d06144ab565b81806020019051810190611fe19190614d21565b6124ec6144c5565b81806020019051810190611fe19190614dad565b6125086144e8565b81806020019051810190611fe19190614eb7565b6060808215611fe15760408051600180825281830190925290816020015b61254261451a565b81526020019060019003908161253a57905050905061256083613341565b8160008151811061256d57fe5b602002602001018190525092915050565b6060806000841180156125915750600083115b1561260c576040805160028082526060820190925290816020015b6125b461451a565b8152602001906001900390816125ac5790505090506125d284613341565b816000815181106125df57fe5b60200260200101819052506125f383613341565b8160018151811061260057fe5b60200260200101819052505b60008411801561261a575082155b156126735760408051600180825281830190925290816020015b61263c61451a565b81526020019060019003908161263457905050905061265a84613341565b8160008151811061266757fe5b60200260200101819052505b831580156126815750600083115b156126da5760408051600180825281830190925290816020015b6126a361451a565b81526020019060019003908161269b5790505090506126c183613341565b816000815181106126ce57fe5b60200260200101819052505b9392505050565b6126e9614531565b81806020019051810190611fe19190614e59565b60408051600180825281830190925260609160009190816020015b61272061451a565b815260200190600190039081612718579050509050828160008151811061274357fe5b6020026020010151600001906001600160a01b031690816001600160a01b0316815250506127108160008151811061277757fe5b6020908102919091018101516001600160601b039092169101529050919050565b6000826127a757506000611fe1565b50600090815261012f6020526040902054919050565b6127c5614466565b6000806127d3898887613369565b915091506000806127e58a8988613369565b91509150838111156128185761280d84848c60200151602001518d60600151602001516133e2565b94505050505061283b565b6128348b60200151602001518c60600151602001518484613467565b9450505050505b9695505050505050565b6000828201838110156126da576040805162461bcd60e51b815260206004820152601b60248201527f536166654d6174683a206164646974696f6e206f766572666c6f770000000000604482015290519081900360640190fd5b60006001600160e01b03198216632fa3cfd360e01b14806128d057506001600160e01b03198216630d8c66fb60e11b145b156128e4576128dd6134ed565b905061192e565b506000919050565b60006001600160e01b031983166355575f5d60e11b141561290f57506001611fe1565b6001600160e01b031982166355575f5d60e11b141561293057506002611fe1565b6001600160e01b031983166322ba176160e21b141561295157506001611fe1565b6001600160e01b031982166322ba176160e21b141561297257506002611fe1565b6001600160e01b0319831663025ceed960e61b141561299357506001611fe1565b6001600160e01b0319821663025ceed960e61b14156129b457506002611fe1565b50600092915050565b60006001600160e01b03198716632fa3cfd360e01b148015906129f157506001600160e01b03198616632fa3cfd360e01b14155b8015612a0e57506001600160e01b03198716630d8c66fb60e11b14155b8015612a2b57506001600160e01b03198616630d8c66fb60e11b14155b15612a385750600061283b565b6000612a4d83876020015187602001516134f4565b905060006001856002811115612a5f57fe5b1415612abc575060608501516001600160e01b03198916630d8c66fb60e11b148015612a9b57506001600160e01b03198816632fa3cfd360e01b145b612ab75760405162461bcd60e51b8152600401610b9a90615256565b612b2d565b6002856002811115612aca57fe5b1415612b22575060608601516001600160e01b03198816630d8c66fb60e11b148015612b0657506001600160e01b03198916632fa3cfd360e01b145b612ab75760405162461bcd60e51b8152600401610b9a906152e8565b60009250505061283b565b600081118015612b3d5750818110155b8015612b4b57506103e88111155b612b675760405162461bcd60e51b8152600401610b9a906152c2565b98975050505050505050565b6000612b8d85600001516020015184876040015185613573565b90506000612bb7828760000151602001518860800151878a60000151600001518b606001516135d3565b865180518751516020808a015193015160808b015160608c0151959650612be5959394929387929190613699565b90508560400151516001148015612c0157508460400151516001145b8015612c5657508560400151600081518110612c1957fe5b6020026020010151600001516001600160a01b03168560400151600081518110612c3f57fe5b6020026020010151600001516001600160a01b0316145b15612d6c57604080516001808252818301909252600091816020015b612c7a61451a565b815260200190600190039081612c725790505090508560400151600081518110612ca057fe5b60200260200101516000015181600081518110612cb957fe5b60209081029190910101516001600160a01b03909116905260408701518051600090612ce157fe5b6020026020010151602001518660400151600081518110612cfe57fe5b6020026020010151602001510181600081518110612d1857fe5b6020026020010151602001906001600160601b031690816001600160601b031681525050612d6287600001516000015183896000015160200151848b608001518c6060015161379e565b509150612dc59050565b612d968660000151600001518288600001516020015189604001518a608001518b6060015161379e565b5086518051602090910151604088015160808a015160608b0151949550612dc194869392919061379e565b5090505b612de686600001516000015182886080015188602001518a60600151612def565b50949350505050565b6000825111612e105760405162461bcd60e51b8152600401610b9a9061527e565b600084815b6001855103811015612edf576000612e56868381518110612e3257fe5b6020026020010151602001516001600160601b03168961385390919063ffffffff16565b9050612e8b868381518110612e6757fe5b6020026020010151602001516001600160601b03168561284590919063ffffffff16565b93508015612ed657612e9d8382611f85565b9250612ed660405180604001604052808b81526020018381525088888581518110612ec457fe5b6020026020010151600001518861386b565b50600101612e15565b50600084600186510381518110612ef257fe5b60200260200101519050612f1c81602001516001600160601b03168461284590919063ffffffff16565b92508261271014612f3f5760405162461bcd60e51b8152600401610b9a906153a9565b8115612f6957612f6960405180604001604052808a8152602001848152508783600001518761386b565b5050505050505050565b60007f477ed43b8020849b755512278536c3766a3b4ab547519949a75f483372493f8d8260000151612fa88460200151613c53565b8460400151612fba8660600151613c53565b86608001518760a001518860c001518960e001518a610100015180519060200120604051602001808b81526020018a6001600160a01b03168152602001898152602001886001600160a01b03168152602001878152602001868152602001858152602001848152602001836001600160e01b03191681526020018281526020019a5050505050505050505050604051602081830303815290604052805190602001209050919050565b600061306d613cc3565b82604051602001808061190160f01b81525060020183815260200182815260200192505050604051602081830303815290604052805190602001209050919050565b60008151604114613107576040805162461bcd60e51b815260206004820152601f60248201527f45434453413a20696e76616c6964207369676e6174757265206c656e67746800604482015290519081900360640190fd5b60208201516040830151606084015160001a61283b86828585613d03565b61312d614424565b825182516001600160e01b031982166355575f5d60e11b1415613198576001600160e01b031981166355575f5d60e11b141561316d578492505050611fe1565b5050604080518082018252600080825282516020818101909452908152918101919091529050611fe1565b6001600160e01b031982166322ba176160e21b14156131dd576001600160e01b031981166322ba176160e21b141561316d576131d48585613f59565b92505050611fe1565b6001600160e01b031982166339d690a360e11b1415613219576001600160e01b031981166339d690a360e11b141561316d576131d48585613f59565b6001600160e01b0319821663025ceed960e61b1415613255576001600160e01b0319811663025ceed960e61b141561316d576131d48585613f59565b6001600160e01b031982166000908152606560205260409020546001600160a01b0316801561330a576040516306d3f7cb60e41b81526001600160a01b03821690636d3f7cb0906132ac908990899060040161549c565b60006040518083038186803b1580156132c457600080fd5b505afa1580156132d8573d6000803e3d6000fd5b505050506040513d6000823e601f3d908101601f191682016040526133009190810190614c96565b9350505050611fe1565b6001600160e01b03198381169083161415613329576133008686613f59565b60405162461bcd60e51b8152600401610b9a906151ba565b61334961451a565b811561192e576001600160a01b038216815260a09190911c602082015290565b60008082156133a85760208086015101516133849085611f85565b91506133a185606001516020015186602001516020015184613fb6565b9050611f7d565b6060850151602001516133bb9085611f85565b90506133d885602001516020015186606001516020015183613fb6565b9150935093915050565b6133ea614466565b60006133f7858585613fb6565b90508581111561344e576040805162461bcd60e51b815260206004820152601860248201527f66696c6c4c6566743a20756e61626c6520746f2066696c6c0000000000000000604482015290519081900360640190fd5b5050604080518082019091529384525050602082015290565b61346f614466565b600061347c838787613fb6565b9050838111156134d3576040805162461bcd60e51b815260206004820152601960248201527f66696c6c52696768743a20756e61626c6520746f2066696c6c00000000000000604482015290519081900360640190fd5b604080518082019091529283526020830152509392505050565b6101615490565b600083815b84518110156135345784818151811061350e57fe5b6020026020010151602001516001600160601b03168201915080806001019150506134f9565b5060005b8351811015612de65783818151811061354d57fe5b6020026020010151602001516001600160601b0316820191508080600101915050613538565b60008115613582575083611e0b565b60006135986135918787613853565b8790612845565b905060005b84518110156135c9576135bf6135b8868381518110612e3257fe5b8390612845565b915060010161359d565b5095945050505050565b60008060006135e3898988614014565b9092509050801561368d5784516000906001600160e01b0319166322ba176160e21b141561362a57856020015180602001905181019061362391906148e9565b9050613663565b85516001600160e01b03191663025ceed960e61b1415613663576000866020015180602001905181019061365e9190614af5565b509150505b61368b6040518060400160405280888152602001848152508961368584614036565b8861386b565b505b50979650505050505050565b6000806136a588614075565b9050805160011480156136b9575086516001145b80156137065750866000815181106136cd57fe5b6020026020010151600001516001600160a01b0316816000815181106136ef57fe5b6020026020010151600001516001600160a01b0316145b15613757576113888160008151811061371b57fe5b6020026020010151602001516001600160601b0316111561374e5760405162461bcd60e51b8152600401610b9a906151f1565b85915050613793565b6000806137688b8989868a8a61379e565b9150915061138881111561378e5760405162461bcd60e51b8152600401610b9a906151f1565b509150505b979650505050505050565b846000805b8551811015613847576137df8682815181106137bb57fe5b6020026020010151602001516001600160601b03168361284590919063ffffffff16565b9150600061380e84898985815181106137f457fe5b6020026020010151602001516001600160601b0316614014565b9094509050801561383e5761383e60405180604001604052808c81526020018381525087898581518110612ec457fe5b506001016137a3565b50965096945050505050565b60006126da61271061386585856141ea565b90614243565b8351516001600160e01b0319166339d690a360e11b14156139b1576000808560000151602001518060200190518101906138a59190614af5565b9150915085602001516001146138cd5760405162461bcd60e51b8152600401610b9a90615354565b6001600160a01b03851630141561394557604051632142170760e11b81526001600160a01b038316906342842e0e9061390e903090889086906004016150b4565b600060405180830381600087803b15801561392857600080fd5b505af115801561393c573d6000803e3d6000fd5b505050506139aa565b604051637b84dc8360e11b81526001600160a01b0384169063f709b90690613977908590899089908790600401615190565b600060405180830381600087803b15801561399157600080fd5b505af11580156139a5573d6000803e3d6000fd5b505050505b5050610f6f565b8351516001600160e01b0319166322ba176160e21b1415613af45760008460000151602001518060200190518101906139ea91906148e9565b90506001600160a01b038416301415613a8657602085015160405163a9059cbb60e01b81526001600160a01b0383169163a9059cbb91613a2e918791600401615110565b602060405180830381600087803b158015613a4857600080fd5b505af1158015613a5c573d6000803e3d6000fd5b505050506040513d601f19601f82011682018060405250810190613a809190614bf3565b50613aee565b602085015160405163776062c360e01b81526001600160a01b0384169163776062c391613abb91859189918991600401615190565b600060405180830381600087803b158015613ad557600080fd5b505af1158015613ae9573d6000803e3d6000fd5b505050505b50610f6f565b8351516001600160e01b03191663025ceed960e61b1415613bb157600080856000015160200151806020019051810190613b2e9190614af5565b90925090506001600160a01b038516301415613b79576020860151604051637921219560e11b81526001600160a01b0384169163f242432a9161390e913091899187916004016150d8565b6020860151604051639c1c2ee960e01b81526001600160a01b03851691639c1c2ee9916139779186918a918a9188919060040161514d565b8351516001600160e01b0319166355575f5d60e11b1415613bf5576001600160a01b038216301461243c57602084015161243c906001600160a01b03841690611fe7565b6040516354bc0cf160e01b81526001600160a01b038216906354bc0cf190613c25908790879087906004016154c1565b600060405180830381600087803b158015613c3f57600080fd5b505af1158015612f69573d6000803e3d6000fd5b60007fdb6f72e915676cfc289da13bc4ece054fd17b1df6d77ffc4a60510718c236b08613c83836000015161207f565b8360200151604051602001808481526020018381526020018281526020019350505050604051602081830303815290604052805190602001209050919050565b6000613cfe7f8b73c3c69bb8fe3d512ecc4cf759cc79239f7b179b0ffacaa9a75d522b39400f613cf16142aa565b613cf96142b0565b6142b6565b905090565b60007f7fffffffffffffffffffffffffffffff5d576e7357a4501ddfe92f46681b20a0821115613d645760405162461bcd60e51b81526004018080602001828103825260228152602001806156416022913960400191505060405180910390fd5b6000601e8560ff161115613e3e576004850360ff16601b1480613d8d57506004850360ff16601c145b613dc85760405162461bcd60e51b81526004018080602001828103825260228152602001806156de6022913960400191505060405180910390fd5b6001613dd387614318565b60048703868660405160008152602001604052604051808581526020018460ff1681526020018381526020018281526020019450505050506020604051602081039080840390855afa158015613e2d573d6000803e3d6000fd5b505050602060405103519050613ef5565b8460ff16601b1480613e5357508460ff16601c145b613e8e5760405162461bcd60e51b81526004018080602001828103825260228152602001806156de6022913960400191505060405180910390fd5b60018686868660405160008152602001604052604051808581526020018460ff1681526020018381526020018281526020019450505050506020604051602081039080840390855afa158015613ee8573d6000803e3d6000fd5b5050506020604051035190505b6001600160a01b038116613f50576040805162461bcd60e51b815260206004820152601860248201527f45434453413a20696e76616c6964207369676e61747572650000000000000000604482015290519081900360640190fd5b95945050505050565b613f61614424565b60208084015180519082012083820151805192019190912080821415613f8b578492505050611fe1565b5050604080518082018252600080825282516020808201909452908152918101919091529392505050565b6000613fc3848484614369565b15614006576040805162461bcd60e51b815260206004820152600e60248201526d3937bab73234b7339032b93937b960911b604482015290519081900360640190fd5b611e0b8361386586856141ea565b60008061402a856140258686613853565b6143f8565b91509150935093915050565b6001600160a01b0380821660009081526101646020526040812054909116801561406157905061192e565b5050610163546001600160a01b0316919050565b80516060906001600160e01b03191663025ceed960e61b14806140a9575081516001600160e01b0319166339d690a360e11b145b1561415f5760008083602001518060200190518101906140c99190614af5565b61016254604051634e53ee3d60e11b81529294509092506001600160a01b031690639ca7dc7a906141009085908590600401615110565b600060405180830381600087803b15801561411a57600080fd5b505af115801561412e573d6000803e3d6000fd5b505050506040513d6000823e601f3d908101601f191682016040526141569190810190614bc1565b9250505061192e565b81516001600160e01b03191662737ea960e61b14156141a057600082602001518060200190518101906141929190614905565b60800151925061192e915050565b81516001600160e01b03191663d8f960c160e01b14156141e257600082602001518060200190518101906141d49190614a02565b60600151925061192e915050565b506060919050565b6000826141f957506000611fe1565b8282028284828161420657fe5b04146126da5760405162461bcd60e51b81526004018080602001828103825260218152602001806157006021913960400191505060405180910390fd5b6000808211614299576040805162461bcd60e51b815260206004820152601a60248201527f536166654d6174683a206469766973696f6e206279207a65726f000000000000604482015290519081900360640190fd5b8183816142a257fe5b049392505050565b60c95490565b60ca5490565b60008383836142c3614420565b3060405160200180868152602001858152602001848152602001838152602001826001600160a01b03168152602001955050505050506040516020818303038152906040528051906020012090509392505050565b604080517f19457468657265756d205369676e6564204d6573736167653a0a333200000000602080830191909152603c8083019490945282518083039094018452605c909101909152815191012090565b6000826143b0576040805162461bcd60e51b815260206004820152601060248201526f6469766973696f6e206279207a65726f60801b604482015290519081900360640190fd5b8115806143bb575083155b156143c8575060006126da565b600083806143d257fe5b85840990506143e185846141ea565b6143ed826103e86141ea565b101595945050505050565b600080828411156144175761440d8484611f85565b9150829050611aa3565b50600093915050565b4690565b60408051808201909152600081526060602082015290565b60405180608001604052806060815260200160608152602001600015158152602001600081525090565b604051806040016040528060008152602001600081525090565b60405180606001604052806000815260200160008152602001600060028111156144a657fe5b905290565b604051806040016040528060608152602001606081525090565b604051806060016040528060608152602001606081526020016000151581525090565b6040518060a0016040528060008152602001600081526020016000815260200160008152602001600080191681525090565b604080518082019091526000808252602082015290565b6040518060800160405280600081526020016000815260200160008152602001600080191681525090565b803561192e816155ef565b600082601f830112614577578081fd5b8151602061458c61458783615585565b615562565b82815281810190858301855b858110156145c1576145af898684518b01016146f0565b84529284019290840190600101614598565b5090979650505050505050565b600082601f8301126145de578081fd5b815160206145ee61458783615585565b8281528181019085830160408086028801850189101561460c578687fd5b865b8681101561467b5781838b031215614624578788fd5b81518281018181106001600160401b038211171561463e57fe5b8352835161464b816155ef565b8152838701516001600160601b038116811461466557898afd5b818801528552938501939181019160010161460e565b509198975050505050505050565b8051801515811461192e57600080fd5b803561192e81615604565b600082601f8301126146b4578081fd5b81356146c2614587826155a2565b8181528460208386010111156146d6578283fd5b816020850160208301379081016020019190915292915050565b600082601f830112614700578081fd5b815161470e614587826155a2565b818152846020838601011115614722578283fd5b611e0b8260208301602087016155c3565b60006040808385031215614745578182fd5b80518181016001600160401b03828210818311171561476057fe5b81845282945085358181111561477557600080fd5b860180880385131561478657600080fd5b60808401838110838211171561479857fe5b9094528335936147a785615604565b938252602084013593818511156147bd57600080fd5b6147c9888683016146a4565b60608501525050815260209384013593019290925292915050565b60006101208083850312156147f7578182fd5b61480081615562565b91505061480c8261455c565b815260208201356001600160401b038082111561482857600080fd5b61483485838601614733565b60208401526148456040850161455c565b6040840152606084013591508082111561485e57600080fd5b61486a85838601614733565b60608401526080840135608084015260a084013560a084015260c084013560c084015261489960e08501614699565b60e0840152610100915081840135818111156148b457600080fd5b6148c0868287016146a4565b8385015250505092915050565b6000602082840312156148de578081fd5b81356126da816155ef565b6000602082840312156148fa578081fd5b81516126da816155ef565b60008060408385031215614917578081fd5b8251614922816155ef565b60208401519092506001600160401b038082111561493e578283fd5b9084019060c08287031215614951578283fd5b61495b60c0615562565b82518152602083015182811115614970578485fd5b61497c888286016146f0565b6020830152506040830151604082015260608301518281111561499d578485fd5b6149a9888286016145ce565b6060830152506080830151828111156149c0578485fd5b6149cc888286016145ce565b60808301525060a0830151828111156149e3578485fd5b6149ef88828601614567565b60a0830152508093505050509250929050565b60008060408385031215614a14578182fd5b8251614a1f816155ef565b60208401519092506001600160401b0380821115614a3b578283fd5b9084019060a08287031215614a4e578283fd5b614a5860a0615562565b82518152602083015182811115614a6d578485fd5b614a79888286016146f0565b602083015250604083015182811115614a90578485fd5b614a9c888286016145ce565b604083015250606083015182811115614ab3578485fd5b614abf888286016145ce565b606083015250608083015182811115614ad6578485fd5b614ae288828601614567565b6080830152508093505050509250929050565b60008060408385031215614b07578182fd5b8251614b12816155ef565b6020939093015192949293505050565b60008060408385031215614b34578182fd5b8235614b3f816155ef565b91506020830135614b4f816155ef565b809150509250929050565b600080600080600060a08688031215614b71578081fd5b8535614b7c816155ef565b94506020860135614b8c816155ef565b9350604086013592506060860135614ba3816155ef565b91506080860135614bb3816155ef565b809150509295509295909350565b600060208284031215614bd2578081fd5b81516001600160401b03811115614be7578182fd5b611e0b848285016145ce565b600060208284031215614c04578081fd5b6126da82614689565b600060208284031215614c1e578081fd5b5035919050565b600060208284031215614c36578081fd5b81356126da81615604565b60008060408385031215614c53578182fd5b8235614b3f81615604565b600060208284031215614c6f578081fd5b81356001600160401b03811115614c84578182fd5b820161018081850312156126da578182fd5b600060208284031215614ca7578081fd5b81516001600160401b0380821115614cbd578283fd5b9083019060408286031215614cd0578283fd5b604051604081018181108382111715614ce557fe5b6040528251614cf381615604565b8152602083015182811115614d06578485fd5b614d12878286016146f0565b60208301525095945050505050565b600060208284031215614d32578081fd5b81516001600160401b0380821115614d48578283fd5b9083019060408286031215614d5b578283fd5b604051604081018181108382111715614d7057fe5b604052825182811115614d81578485fd5b614d8d878286016145ce565b825250602083015182811115614da1578485fd5b614d12878286016145ce565b600060208284031215614dbe578081fd5b81516001600160401b0380821115614dd4578283fd5b9083019060608286031215614de7578283fd5b604051606081018181108382111715614dfc57fe5b604052825182811115614e0d578485fd5b614e19878286016145ce565b825250602083015182811115614e2d578485fd5b614e39878286016145ce565b602083015250614e4b60408401614689565b604082015295945050505050565b600060808284031215614e6a578081fd5b604051608081018181106001600160401b0382111715614e8657fe5b8060405250825181526020830151602082015260408301516040820152606083015160608201528091505092915050565b600060a08284031215614ec8578081fd5b60405160a081018181106001600160401b0382111715614ee457fe5b806040525082518152602083015160208201526040830151604082015260608301516060820152608083015160808201528091505092915050565b600060208284031215614f30578081fd5b81356001600160401b03811115614f45578182fd5b611e0b848285016147e4565b60008060008060808587031215614f66578182fd5b84356001600160401b0380821115614f7c578384fd5b614f88888389016147e4565b95506020870135915080821115614f9d578384fd5b614fa9888389016146a4565b94506040870135915080821115614fbe578384fd5b614fca888389016147e4565b93506060870135915080821115614fdf578283fd5b50614fec878288016146a4565b91505092959194509250565b600060208284031215615009578081fd5b81356001600160401b0381111561501e578182fd5b82016101a081850312156126da578182fd5b600060208284031215615041578081fd5b81356001600160401b03811681146126da578182fd5b600063ffffffff60e01b8251168352602082015160406020850152805180604086015261508b8160608701602085016155c3565b601f01601f1916939093016060019392505050565b6001600160a01b0391909116815260200190565b6001600160a01b039384168152919092166020820152604081019190915260600190565b6001600160a01b0394851681529290931660208301526040820152606081019190915260a06080820181905260009082015260c00190565b6001600160a01b03929092168252602082015260400190565b90815260200190565b93845260208401929092526040830152606082015260800190565b6001600160a01b03958616815293851660208501529190931660408301526060820192909252608081019190915260c060a0820181905260009082015260e00190565b6001600160a01b039485168152928416602084015292166040820152606081019190915260800190565b60208082526017908201527f6e6f7420666f756e64204941737365744d617463686572000000000000000000604082015260600190565b6020808252601d908201527f526f79616c746965732061726520746f6f206869676820283e35302529000000604082015260600190565b6020808252601490820152730c081cd85b1d0818d85b89dd081899481d5cd95960621b604082015260600190565b6020808252600e908201526d77726f6e6720563320747970653160901b604082015260600190565b60208082526024908201527f7472616e736665725061796f7574733a206e6f7468696e6720746f207472616e60408201526339b332b960e11b606082015260800190565b6020808252600c908201526b77726f6e67206d617846656560a01b604082015260600190565b6020808252600e908201526d3bb937b733902b19903a3cb8329960911b604082015260600190565b60208082526024908201527f72696768744f726465722e74616b657220766572696669636174696f6e2066616040820152631a5b195960e21b606082015260800190565b60208082526012908201527132b9319b9918903b30b63ab29032b93937b960711b604082015260600190565b6020808252600f908201526e1b9bdd1a1a5b99c81d1bc8199a5b1b608a1b604082015260600190565b6020808252601e908201527f53756d207061796f75747320427073206e6f7420657175616c20313030250000604082015260600190565b6020808252601290820152710c2e6e6cae8e640c8dedc4ee840dac2e8c6d60731b604082015260600190565b60208082526023908201527f6c6566744f726465722e74616b657220766572696669636174696f6e206661696040820152621b195960ea1b606082015260800190565b6020808252600e908201526d0dcdee840cadcdeeaced040cae8d60931b604082015260600190565b6020808252600b908201526a3737ba10309036b0b5b2b960a91b604082015260600190565b6000604082526154af6040830185615057565b8281036020840152613f508185615057565b6000606082528451604060608401526154dd60a0840182615057565b60209687015160808501526001600160a01b03958616968401969096525050911660409091015290565b9182526001600160401b0316602082015260400190565b6000808335601e19843603018112615534578283fd5b8301803591506001600160401b0382111561554d578283fd5b602001915036819003821315611aa357600080fd5b6040518181016001600160401b038111828210171561557d57fe5b604052919050565b60006001600160401b0382111561559857fe5b5060209081020190565b60006001600160401b038211156155b557fe5b50601f01601f191660200190565b60005b838110156155de5781810151838201526020016155c6565b83811115610f6f5750506000910152565b6001600160a01b038116811461112857600080fd5b6001600160e01b03198116811461112857600080fdfe4f776e61626c653a206e6577206f776e657220697320746865207a65726f206164647265737345434453413a20696e76616c6964207369676e6174757265202773272076616c75656f72646572207369676e617475726520766572696669636174696f6e206572726f72636f6e7472616374206f72646572207369676e617475726520766572696669636174696f6e206572726f72496e697469616c697a61626c653a20636f6e747261637420697320616c726561647920696e697469616c697a656445434453413a20696e76616c6964207369676e6174757265202776272076616c7565536166654d6174683a206d756c7469706c69636174696f6e206f766572666c6f774f776e61626c653a2063616c6c6572206973206e6f7420746865206f776e6572a26469706673582212204dbdfc7fa1c224bcda2fd8fff4fdaff30f8aca0d621c427335899e90d2659c2764736f6c63430007060033",
  "immutableReferences": {},
  "source": "// SPDX-License-Identifier: MIT\n\npragma solidity 0.7.6;\npragma abicoder v2;\n\nimport \"./ExchangeV2Core.sol\";\nimport \"@rarible/transfer-manager/contracts/RaribleTransferManager.sol\";\n\ncontract ExchangeV2 is ExchangeV2Core, RaribleTransferManager {\n    function __ExchangeV2_init(\n        address _transferProxy,\n        address _erc20TransferProxy,\n        uint newProtocolFee,\n        address newDefaultFeeReceiver,\n        IRoyaltiesProvider newRoyaltiesProvider\n    ) external initializer {\n        __Context_init_unchained();\n        __Ownable_init_unchained();\n        __TransferExecutor_init_unchained(_transferProxy, _erc20TransferProxy);\n        __RaribleTransferManager_init_unchained(newProtocolFee, newDefaultFeeReceiver, newRoyaltiesProvider);\n        __OrderValidator_init_unchained();\n    }\n\n    function getProtocolFee() internal override view returns(uint) {\n        return protocolFee;\n    }\n}\n",
  "sourcePath": "/Users/aardvocate/src/rarible/protocol-contracts/exchange-v2/contracts/ExchangeV2.sol",
  "compiler": {
    "name": "solc",
    "version": "0.7.6+commit.7338295f.Emscripten.clang"
  },
  "schemaVersion": "3.4.1",
  "updatedAt": "2022-08-01T22:42:56.900Z",
  "devdoc": {
    "kind": "dev",
    "methods": {
      "directAcceptBid((uint256,uint256,uint256,uint256,uint256,address,bytes4,bytes,bytes,bytes,bytes,bytes))": {
        "details": "function, generate sellOrder and buyOrder from parameters and call validateAndMatch() for accept bid transaction",
        "params": {
          "direct": "struct with parameters for accept bid operation"
        }
      },
      "directPurchase((uint256,uint256,uint256,uint256,uint256,address,bytes4,bytes4,bytes,bytes,bytes,bytes,bytes))": {
        "details": "function, generate sellOrder and buyOrder from parameters and call validateAndMatch() for purchase transaction",
        "params": {
          "direct": "struct with parameters for purchase operation"
        }
      },
      "owner()": {
        "details": "Returns the address of the current owner."
      },
      "renounceOwnership()": {
        "details": "Leaves the contract without owner. It will not be possible to call `onlyOwner` functions anymore. Can only be called by the current owner. NOTE: Renouncing ownership will leave the contract without an owner, thereby removing any functionality that is only available to the owner."
      },
      "transferOwnership(address)": {
        "details": "Transfers ownership of the contract to a new account (`newOwner`). Can only be called by the current owner."
      }
    },
    "version": 1
  },
  "userdoc": {
    "kind": "user",
    "methods": {},
    "version": 1
  }
}