{
  "contractName": "ExchangeMetaV2",
  "abi": [
    {
      "anonymous": false,
      "inputs": [
        {
          "indexed": false,
          "internalType": "bytes32",
          "name": "hash",
          "type": "bytes32"
        }
      ],
      "name": "Cancel",
      "type": "event"
    },
    {
      "anonymous": false,
      "inputs": [
        {
          "indexed": false,
          "internalType": "bytes32",
          "name": "leftHash",
          "type": "bytes32"
        },
        {
          "indexed": false,
          "internalType": "bytes32",
          "name": "rightHash",
          "type": "bytes32"
        },
        {
          "indexed": false,
          "internalType": "uint256",
          "name": "newLeftFill",
          "type": "uint256"
        },
        {
          "indexed": false,
          "internalType": "uint256",
          "name": "newRightFill",
          "type": "uint256"
        }
      ],
      "name": "Match",
      "type": "event"
    },
    {
      "anonymous": false,
      "inputs": [
        {
          "indexed": true,
          "internalType": "bytes4",
          "name": "assetType",
          "type": "bytes4"
        },
        {
          "indexed": false,
          "internalType": "address",
          "name": "matcher",
          "type": "address"
        }
      ],
      "name": "MatcherChange",
      "type": "event"
    },
    {
      "anonymous": false,
      "inputs": [
        {
          "indexed": false,
          "internalType": "address",
          "name": "userAddress",
          "type": "address"
        },
        {
          "indexed": false,
          "internalType": "address payable",
          "name": "relayerAddress",
          "type": "address"
        },
        {
          "indexed": false,
          "internalType": "bytes",
          "name": "functionSignature",
          "type": "bytes"
        }
      ],
      "name": "MetaTransactionExecuted",
      "type": "event"
    },
    {
      "anonymous": false,
      "inputs": [
        {
          "indexed": true,
          "internalType": "address",
          "name": "previousOwner",
          "type": "address"
        },
        {
          "indexed": true,
          "internalType": "address",
          "name": "newOwner",
          "type": "address"
        }
      ],
      "name": "OwnershipTransferred",
      "type": "event"
    },
    {
      "anonymous": false,
      "inputs": [
        {
          "indexed": false,
          "internalType": "uint256",
          "name": "oldValue",
          "type": "uint256"
        },
        {
          "indexed": false,
          "internalType": "uint256",
          "name": "newValue",
          "type": "uint256"
        }
      ],
      "name": "ProtocolFeeChanged",
      "type": "event"
    },
    {
      "anonymous": false,
      "inputs": [
        {
          "indexed": true,
          "internalType": "bytes4",
          "name": "assetType",
          "type": "bytes4"
        },
        {
          "indexed": false,
          "internalType": "address",
          "name": "proxy",
          "type": "address"
        }
      ],
      "name": "ProxyChange",
      "type": "event"
    },
    {
      "inputs": [
        {
          "components": [
            {
              "internalType": "address",
              "name": "maker",
              "type": "address"
            },
            {
              "components": [
                {
                  "components": [
                    {
                      "internalType": "bytes4",
                      "name": "assetClass",
                      "type": "bytes4"
                    },
                    {
                      "internalType": "bytes",
                      "name": "data",
                      "type": "bytes"
                    }
                  ],
                  "internalType": "struct LibAsset.AssetType",
                  "name": "assetType",
                  "type": "tuple"
                },
                {
                  "internalType": "uint256",
                  "name": "value",
                  "type": "uint256"
                }
              ],
              "internalType": "struct LibAsset.Asset",
              "name": "makeAsset",
              "type": "tuple"
            },
            {
              "internalType": "address",
              "name": "taker",
              "type": "address"
            },
            {
              "components": [
                {
                  "components": [
                    {
                      "internalType": "bytes4",
                      "name": "assetClass",
                      "type": "bytes4"
                    },
                    {
                      "internalType": "bytes",
                      "name": "data",
                      "type": "bytes"
                    }
                  ],
                  "internalType": "struct LibAsset.AssetType",
                  "name": "assetType",
                  "type": "tuple"
                },
                {
                  "internalType": "uint256",
                  "name": "value",
                  "type": "uint256"
                }
              ],
              "internalType": "struct LibAsset.Asset",
              "name": "takeAsset",
              "type": "tuple"
            },
            {
              "internalType": "uint256",
              "name": "salt",
              "type": "uint256"
            },
            {
              "internalType": "uint256",
              "name": "start",
              "type": "uint256"
            },
            {
              "internalType": "uint256",
              "name": "end",
              "type": "uint256"
            },
            {
              "internalType": "bytes4",
              "name": "dataType",
              "type": "bytes4"
            },
            {
              "internalType": "bytes",
              "name": "data",
              "type": "bytes"
            }
          ],
          "internalType": "struct LibOrder.Order",
          "name": "order",
          "type": "tuple"
        }
      ],
      "name": "cancel",
      "outputs": [],
      "stateMutability": "nonpayable",
      "type": "function"
    },
    {
      "inputs": [],
      "name": "defaultFeeReceiver",
      "outputs": [
        {
          "internalType": "address",
          "name": "",
          "type": "address"
        }
      ],
      "stateMutability": "view",
      "type": "function"
    },
    {
      "inputs": [
        {
          "components": [
            {
              "internalType": "uint256",
              "name": "tokenBidAmount",
              "type": "uint256"
            },
            {
              "internalType": "uint256",
              "name": "tokenAcceptAmount",
              "type": "uint256"
            },
            {
              "internalType": "uint256",
              "name": "priceBid",
              "type": "uint256"
            },
            {
              "internalType": "uint256",
              "name": "priceAccept",
              "type": "uint256"
            },
            {
              "internalType": "uint256",
              "name": "salt",
              "type": "uint256"
            },
            {
              "internalType": "address",
              "name": "buyer",
              "type": "address"
            },
            {
              "internalType": "bytes4",
              "name": "nftClass",
              "type": "bytes4"
            },
            {
              "internalType": "bytes",
              "name": "nftData",
              "type": "bytes"
            },
            {
              "internalType": "bytes",
              "name": "paymentData",
              "type": "bytes"
            },
            {
              "internalType": "bytes",
              "name": "bidOrderData",
              "type": "bytes"
            },
            {
              "internalType": "bytes",
              "name": "acceptOrderData",
              "type": "bytes"
            },
            {
              "internalType": "bytes",
              "name": "signature",
              "type": "bytes"
            }
          ],
          "internalType": "struct LibDirectTransfer.AcceptBid",
          "name": "direct",
          "type": "tuple"
        }
      ],
      "name": "directAcceptBid",
      "outputs": [],
      "stateMutability": "payable",
      "type": "function"
    },
    {
      "inputs": [
        {
          "components": [
            {
              "internalType": "uint256",
              "name": "tokenSellAmount",
              "type": "uint256"
            },
            {
              "internalType": "uint256",
              "name": "tokenPurchaseAmount",
              "type": "uint256"
            },
            {
              "internalType": "uint256",
              "name": "priceSell",
              "type": "uint256"
            },
            {
              "internalType": "uint256",
              "name": "pricePurchase",
              "type": "uint256"
            },
            {
              "internalType": "uint256",
              "name": "salt",
              "type": "uint256"
            },
            {
              "internalType": "address",
              "name": "seller",
              "type": "address"
            },
            {
              "internalType": "bytes4",
              "name": "nftClass",
              "type": "bytes4"
            },
            {
              "internalType": "bytes4",
              "name": "paymentClass",
              "type": "bytes4"
            },
            {
              "internalType": "bytes",
              "name": "nftData",
              "type": "bytes"
            },
            {
              "internalType": "bytes",
              "name": "paymentData",
              "type": "bytes"
            },
            {
              "internalType": "bytes",
              "name": "sellOrderData",
              "type": "bytes"
            },
            {
              "internalType": "bytes",
              "name": "purchaseOrderData",
              "type": "bytes"
            },
            {
              "internalType": "bytes",
              "name": "signature",
              "type": "bytes"
            }
          ],
          "internalType": "struct LibDirectTransfer.Purchase",
          "name": "direct",
          "type": "tuple"
        }
      ],
      "name": "directPurchase",
      "outputs": [],
      "stateMutability": "payable",
      "type": "function"
    },
    {
      "inputs": [
        {
          "internalType": "address",
          "name": "userAddress",
          "type": "address"
        },
        {
          "internalType": "bytes",
          "name": "functionSignature",
          "type": "bytes"
        },
        {
          "internalType": "bytes32",
          "name": "sigR",
          "type": "bytes32"
        },
        {
          "internalType": "bytes32",
          "name": "sigS",
          "type": "bytes32"
        },
        {
          "internalType": "uint8",
          "name": "sigV",
          "type": "uint8"
        }
      ],
      "name": "executeMetaTransaction",
      "outputs": [
        {
          "internalType": "bytes",
          "name": "",
          "type": "bytes"
        }
      ],
      "stateMutability": "payable",
      "type": "function"
    },
    {
      "inputs": [
        {
          "internalType": "address",
          "name": "",
          "type": "address"
        }
      ],
      "name": "feeReceivers",
      "outputs": [
        {
          "internalType": "address",
          "name": "",
          "type": "address"
        }
      ],
      "stateMutability": "view",
      "type": "function"
    },
    {
      "inputs": [
        {
          "internalType": "bytes32",
          "name": "",
          "type": "bytes32"
        }
      ],
      "name": "fills",
      "outputs": [
        {
          "internalType": "uint256",
          "name": "",
          "type": "uint256"
        }
      ],
      "stateMutability": "view",
      "type": "function"
    },
    {
      "inputs": [
        {
          "internalType": "address",
          "name": "user",
          "type": "address"
        }
      ],
      "name": "getNonce",
      "outputs": [
        {
          "internalType": "uint256",
          "name": "nonce",
          "type": "uint256"
        }
      ],
      "stateMutability": "view",
      "type": "function"
    },
    {
      "inputs": [
        {
          "components": [
            {
              "internalType": "address",
              "name": "maker",
              "type": "address"
            },
            {
              "components": [
                {
                  "components": [
                    {
                      "internalType": "bytes4",
                      "name": "assetClass",
                      "type": "bytes4"
                    },
                    {
                      "internalType": "bytes",
                      "name": "data",
                      "type": "bytes"
                    }
                  ],
                  "internalType": "struct LibAsset.AssetType",
                  "name": "assetType",
                  "type": "tuple"
                },
                {
                  "internalType": "uint256",
                  "name": "value",
                  "type": "uint256"
                }
              ],
              "internalType": "struct LibAsset.Asset",
              "name": "makeAsset",
              "type": "tuple"
            },
            {
              "internalType": "address",
              "name": "taker",
              "type": "address"
            },
            {
              "components": [
                {
                  "components": [
                    {
                      "internalType": "bytes4",
                      "name": "assetClass",
                      "type": "bytes4"
                    },
                    {
                      "internalType": "bytes",
                      "name": "data",
                      "type": "bytes"
                    }
                  ],
                  "internalType": "struct LibAsset.AssetType",
                  "name": "assetType",
                  "type": "tuple"
                },
                {
                  "internalType": "uint256",
                  "name": "value",
                  "type": "uint256"
                }
              ],
              "internalType": "struct LibAsset.Asset",
              "name": "takeAsset",
              "type": "tuple"
            },
            {
              "internalType": "uint256",
              "name": "salt",
              "type": "uint256"
            },
            {
              "internalType": "uint256",
              "name": "start",
              "type": "uint256"
            },
            {
              "internalType": "uint256",
              "name": "end",
              "type": "uint256"
            },
            {
              "internalType": "bytes4",
              "name": "dataType",
              "type": "bytes4"
            },
            {
              "internalType": "bytes",
              "name": "data",
              "type": "bytes"
            }
          ],
          "internalType": "struct LibOrder.Order",
          "name": "orderLeft",
          "type": "tuple"
        },
        {
          "internalType": "bytes",
          "name": "signatureLeft",
          "type": "bytes"
        },
        {
          "components": [
            {
              "internalType": "address",
              "name": "maker",
              "type": "address"
            },
            {
              "components": [
                {
                  "components": [
                    {
                      "internalType": "bytes4",
                      "name": "assetClass",
                      "type": "bytes4"
                    },
                    {
                      "internalType": "bytes",
                      "name": "data",
                      "type": "bytes"
                    }
                  ],
                  "internalType": "struct LibAsset.AssetType",
                  "name": "assetType",
                  "type": "tuple"
                },
                {
                  "internalType": "uint256",
                  "name": "value",
                  "type": "uint256"
                }
              ],
              "internalType": "struct LibAsset.Asset",
              "name": "makeAsset",
              "type": "tuple"
            },
            {
              "internalType": "address",
              "name": "taker",
              "type": "address"
            },
            {
              "components": [
                {
                  "components": [
                    {
                      "internalType": "bytes4",
                      "name": "assetClass",
                      "type": "bytes4"
                    },
                    {
                      "internalType": "bytes",
                      "name": "data",
                      "type": "bytes"
                    }
                  ],
                  "internalType": "struct LibAsset.AssetType",
                  "name": "assetType",
                  "type": "tuple"
                },
                {
                  "internalType": "uint256",
                  "name": "value",
                  "type": "uint256"
                }
              ],
              "internalType": "struct LibAsset.Asset",
              "name": "takeAsset",
              "type": "tuple"
            },
            {
              "internalType": "uint256",
              "name": "salt",
              "type": "uint256"
            },
            {
              "internalType": "uint256",
              "name": "start",
              "type": "uint256"
            },
            {
              "internalType": "uint256",
              "name": "end",
              "type": "uint256"
            },
            {
              "internalType": "bytes4",
              "name": "dataType",
              "type": "bytes4"
            },
            {
              "internalType": "bytes",
              "name": "data",
              "type": "bytes"
            }
          ],
          "internalType": "struct LibOrder.Order",
          "name": "orderRight",
          "type": "tuple"
        },
        {
          "internalType": "bytes",
          "name": "signatureRight",
          "type": "bytes"
        }
      ],
      "name": "matchOrders",
      "outputs": [],
      "stateMutability": "payable",
      "type": "function"
    },
    {
      "inputs": [],
      "name": "owner",
      "outputs": [
        {
          "internalType": "address",
          "name": "",
          "type": "address"
        }
      ],
      "stateMutability": "view",
      "type": "function"
    },
    {
      "inputs": [],
      "name": "protocolFee",
      "outputs": [
        {
          "internalType": "uint256",
          "name": "",
          "type": "uint256"
        }
      ],
      "stateMutability": "view",
      "type": "function"
    },
    {
      "inputs": [],
      "name": "renounceOwnership",
      "outputs": [],
      "stateMutability": "nonpayable",
      "type": "function"
    },
    {
      "inputs": [],
      "name": "royaltiesRegistry",
      "outputs": [
        {
          "internalType": "contract IRoyaltiesProvider",
          "name": "",
          "type": "address"
        }
      ],
      "stateMutability": "view",
      "type": "function"
    },
    {
      "inputs": [
        {
          "internalType": "bytes4",
          "name": "assetType",
          "type": "bytes4"
        },
        {
          "internalType": "address",
          "name": "matcher",
          "type": "address"
        }
      ],
      "name": "setAssetMatcher",
      "outputs": [],
      "stateMutability": "nonpayable",
      "type": "function"
    },
    {
      "inputs": [
        {
          "internalType": "address payable",
          "name": "newDefaultFeeReceiver",
          "type": "address"
        }
      ],
      "name": "setDefaultFeeReceiver",
      "outputs": [],
      "stateMutability": "nonpayable",
      "type": "function"
    },
    {
      "inputs": [
        {
          "internalType": "address",
          "name": "token",
          "type": "address"
        },
        {
          "internalType": "address",
          "name": "wallet",
          "type": "address"
        }
      ],
      "name": "setFeeReceiver",
      "outputs": [],
      "stateMutability": "nonpayable",
      "type": "function"
    },
    {
      "inputs": [
        {
          "internalType": "uint64",
          "name": "_protocolFee",
          "type": "uint64"
        }
      ],
      "name": "setProtocolFee",
      "outputs": [],
      "stateMutability": "nonpayable",
      "type": "function"
    },
    {
      "inputs": [
        {
          "internalType": "contract IRoyaltiesProvider",
          "name": "newRoyaltiesRegistry",
          "type": "address"
        }
      ],
      "name": "setRoyaltiesRegistry",
      "outputs": [],
      "stateMutability": "nonpayable",
      "type": "function"
    },
    {
      "inputs": [
        {
          "internalType": "bytes4",
          "name": "assetType",
          "type": "bytes4"
        },
        {
          "internalType": "address",
          "name": "proxy",
          "type": "address"
        }
      ],
      "name": "setTransferProxy",
      "outputs": [],
      "stateMutability": "nonpayable",
      "type": "function"
    },
    {
      "inputs": [
        {
          "internalType": "address",
          "name": "newOwner",
          "type": "address"
        }
      ],
      "name": "transferOwnership",
      "outputs": [],
      "stateMutability": "nonpayable",
      "type": "function"
    },
    {
      "inputs": [
        {
          "internalType": "address",
          "name": "_transferProxy",
          "type": "address"
        },
        {
          "internalType": "address",
          "name": "_erc20TransferProxy",
          "type": "address"
        },
        {
          "internalType": "uint256",
          "name": "newProtocolFee",
          "type": "uint256"
        },
        {
          "internalType": "address",
          "name": "newDefaultFeeReceiver",
          "type": "address"
        },
        {
          "internalType": "contract IRoyaltiesProvider",
          "name": "newRoyaltiesProvider",
          "type": "address"
        }
      ],
      "name": "__ExchangeV2_init",
      "outputs": [],
      "stateMutability": "nonpayable",
      "type": "function"
    }
  ],
  "bytecode": "0x608060405234801561001057600080fd5b50615f4180620000216000396000f3fe60806040526004361061012a5760003560e01c806343bc42d3116100ab578063b39deb461161006f578063b39deb46146102f0578063e2864fe314610310578063e66db25e14610330578063e92b100414610350578063e99a3f8014610363578063f2fde38b146103765761012a565b806343bc42d31461027c5780636d8f06941461029c578063715018a6146102b15780638da5cb5b146102c6578063b0e21e8a146102db5761012a565b80632d0335ab116100f25780632d0335ab146101f457806330c642f1146102145780633abf6fd4146102345780633be89922146102495780634271d47d146102695761012a565b806302097ab11461012f5780630c53c51c146101655780631372a625146101855780631cdfe3d8146101a757806320158c44146101c7575b600080fd5b34801561013b57600080fd5b5061014f61014a366004614faa565b610396565b60405161015c91906157f4565b60405180910390f35b61017861017336600461529e565b6103b2565b60405161015c91906158a1565b34801561019157600080fd5b506101a56101a0366004615237565b61072b565b005b3480156101b357600080fd5b506101a56101c2366004614faa565b610848565b3480156101d357600080fd5b506101e76101e2366004615356565b6108cd565b60405161015c919061587d565b34801561020057600080fd5b506101e761020f366004614faa565b6108e0565b34801561022057600080fd5b506101a561022f36600461538a565b6108fc565b34801561024057600080fd5b5061014f6109cc565b34801561025557600080fd5b506101a5610264366004614faa565b6109dc565b6101a56102773660046153a7565b610a61565b34801561028857600080fd5b506101a5610297366004615779565b610d52565b3480156102a857600080fd5b5061014f610dff565b3480156102bd57600080fd5b506101a5610e0f565b3480156102d257600080fd5b5061014f610ebb565b3480156102e757600080fd5b506101e7610ecb565b3480156102fc57600080fd5b506101a561030b36600461538a565b610ed2565b34801561031c57600080fd5b506101a561032b366004615668565b610f96565b34801561033c57600080fd5b506101a561034b3660046151ff565b611057565b6101a561035e366004615741565b6110e8565b6101a561037136600461569a565b61138e565b34801561038257600080fd5b506101a5610391366004614faa565b6113aa565b610164602052600090815260409020546001600160a01b031681565b606060006103bf866114ad565b90506000356001600160e01b03199081169082161415610426576040805162461bcd60e51b815260206004820152601760248201527f57726f6e672066756e6374696f6e5369676e6174757265000000000000000000604482015290519081900360640190fd5b604080516060810182526001600160a01b038916600081815261019360209081529084902054835282015290810187905261046488828888886114cd565b61049f5760405162461bcd60e51b8152600401808060200182810382526021815260200180615eeb6021913960400191505060405180910390fd5b6001600160a01b038816600090815261019360205260409020546104c49060016115b7565b61019360008a6001600160a01b03166001600160a01b0316815260200190815260200160002081905550600080306001600160a01b0316898b6040516020018083805190602001908083835b6020831061052f5780518252601f199092019160209182019101610510565b6001836020036101000a038019825116818451168082178552505050505050905001826001600160a01b031660601b8152601401925050506040516020818303038152906040526040518082805190602001908083835b602083106105a55780518252601f199092019160209182019101610586565b6001836020036101000a0380198251168184511680821785525050505050509050019150506000604051808303816000865af19150503d8060008114610607576040519150601f19603f3d011682016040523d82523d6000602084013e61060c565b606091505b509150915081610663576040805162461bcd60e51b815260206004820152601c60248201527f46756e6374696f6e2063616c6c206e6f74207375636365737366756c00000000604482015290519081900360640190fd5b7f5845892132946850460bff5a0083f71031bc5bf9aadcd40f1de79423eac9b10b8a338b60405180846001600160a01b03168152602001836001600160a01b0316815260200180602001828103825283818151815260200191508051906020019080838360005b838110156106e25781810151838201526020016106ca565b50505050905090810190601f16801561070f5780820380516001836020036101000a031916815260200191505b5094505050505060405180910390a19998505050505050505050565b600054610100900460ff1680610744575061074461161a565b80610752575060005460ff16155b61078d5760405162461bcd60e51b815260040180806020018281038252602e815260200180615e5a602e913960400191505060405180910390fd5b600054610100900460ff161580156107b8576000805460ff1961ff0019909116610100171660011790555b6107c061162b565b6107c86116cd565b6107d06117c6565b6108196040518060400160405280600e81526020016d22bc31b430b733b2a6b2ba30ab1960911b815250604051806040016040528060018152602001603160f81b815250611896565b6108238686611926565b61082e8484846119d0565b8015610840576000805461ff00191690555b505050505050565b610850611aac565b6001600160a01b0316610861610ebb565b6001600160a01b0316146108aa576040805162461bcd60e51b81526020600482018190526024820152600080516020615ecb833981519152604482015290519081900360640190fd5b61016380546001600160a01b0319166001600160a01b0392909216919091179055565b61012f6020526000908152604090205481565b6001600160a01b03166000908152610193602052604090205490565b610904611aac565b6001600160a01b0316610915610ebb565b6001600160a01b03161461095e576040805162461bcd60e51b81526020600482018190526024820152600080516020615ecb833981519152604482015290519081900360640190fd5b6001600160e01b031982166000818152609760205260409081902080546001600160a01b0319166001600160a01b038516179055517f4b5aced933c0c9a88aeac3f0b3b72c5aaf75df8ebaf53225773248c4c3153593906109c09084906157f4565b60405180910390a25050565b610163546001600160a01b031681565b6109e4611aac565b6001600160a01b03166109f5610ebb565b6001600160a01b031614610a3e576040805162461bcd60e51b81526020600482018190526024820152600080516020615ecb833981519152604482015290519081900360640190fd5b61016280546001600160a01b0319166001600160a01b0392909216919091179055565b600060405180604001604052808360c0016020810190610a81919061536e565b6001600160e01b0319168152602001610a9d60e0850185615c85565b8080601f0160208091040260200160405190810160405280939291908181526020018383808284376000920182905250939094525050604080518082019091526322ba176160e21b815292935091905060208101610aff610100860186615c85565b8080601f01602080910402602001604051908101604052809392919081815260200183838082843760009201829052509390945250506040805180820182528681528735602080830191909152825180840184528881528982013581830152835180850185528781528a850135818401528451808601865288815260608c0135938101939093528451610120810190955296975091959194509092909180610bad60c08b0160a08c01614faa565b6001600160a01b03168152602081018590526000604082018190526060820188905260808b8101359083015260a0820181905260c0820152630d8c66fb60e11b60e082015261010001610c046101208b018b615c85565b8080601f016020809104026020016040519081016040528093929190818152602001838380828437600092018290525093909452505060408051610120810190915292935091905080610c55611aac565b6001600160a01b0316815260208101879052600060408201819052606082018690526080820181905260a0820181905260c0820152632fa3cfd360e01b60e082015261010001610ca96101408c018c615c85565b8080601f01602080910402602001604051908101604052809392919081815260200183838082843760009201919091525050509152509050610d3d82610cf36101608c018c615c85565b8080601f016020809104026020016040519081016040528093929190818152602001838380828437600092018290525060408051602081019091529081528793509150611abb9050565b610d478282611b67565b505050505050505050565b610d5a611aac565b6001600160a01b0316610d6b610ebb565b6001600160a01b031614610db4576040805162461bcd60e51b81526020600482018190526024820152600080516020615ecb833981519152604482015290519081900360640190fd5b7fb51bef650ff5ad43303dbe2e500a74d4fd1bdc9ae05f046bece330e82ae0ba876101615482604051610de8929190615c6e565b60405180910390a16001600160401b031661016155565b610162546001600160a01b031681565b610e17611aac565b6001600160a01b0316610e28610ebb565b6001600160a01b031614610e71576040805162461bcd60e51b81526020600482018190526024820152600080516020615ecb833981519152604482015290519081900360640190fd5b6033546040516000916001600160a01b0316907f8be0079c531659141344cd1fd0a4f28419497f9722a3daafe3b4186f6b6457e0908390a3603380546001600160a01b0319169055565b6033546001600160a01b03165b90565b6101615481565b610eda611aac565b6001600160a01b0316610eeb610ebb565b6001600160a01b031614610f34576040805162461bcd60e51b81526020600482018190526024820152600080516020615ecb833981519152604482015290519081900360640190fd5b6001600160e01b031982166000818152606560205260409081902080546001600160a01b0319166001600160a01b038516179055517fd2bf91075f105d0fd80328da28e20ebdad1c1261839711183bc29a44cbe6c72f906109c09084906157f4565b80516001600160a01b0316610fa9611aac565b6001600160a01b031614610fd85760405162461bcd60e51b8152600401610fcf90615bde565b60405180910390fd5b6080810151610ff95760405162461bcd60e51b8152600401610fcf9061598f565b600061100482611de7565b600081815261012f6020526040908190206000199055519091507fe8d9861dbc9c663ed3accd261bbe2fe01e0d3d9e5f51fa38523b265c7757a93a9061104b90839061587d565b60405180910390a15050565b61105f611aac565b6001600160a01b0316611070610ebb565b6001600160a01b0316146110b9576040805162461bcd60e51b81526020600482018190526024820152600080516020615ecb833981519152604482015290519081900360640190fd5b6001600160a01b0391821660009081526101646020526040902080546001600160a01b03191691909216179055565b600060405180604001604052808360c0016020810190611108919061536e565b6001600160e01b0319168152602001611125610100850185615c85565b8080601f0160208091040260200160405190810160405280939291908181526020018383808284376000920182905250939094525050604080518082019091529293509190508061117d610100860160e0870161536e565b6001600160e01b031916815260200161119a610120860186615c85565b8080601f01602080910402602001604051908101604052809392919081815260200183838082843760009201829052509390945250506040805180820182528681528735602080830191909152825180840184528881528982013581830152835180850185528781528a850135818401528451808601865288815260608c013593810193909352845161012081019095529697509195919450909290918061124860c08b0160a08c01614faa565b6001600160a01b03168152602081018790526000604082018190526060820186905260808b8101359083015260a0820181905260c0820152632fa3cfd360e01b60e08201526101000161129f6101408b018b615c85565b8080601f0160208091040260200160405190810160405280939291908181526020018383808284376000920182905250939094525050604080516101208101909152929350919050806112f0611aac565b6001600160a01b0316815260208101859052600060408201819052606082018890526080820181905260a0820181905260c0820152630d8c66fb60e11b60e0820152610100016113446101608c018c615c85565b8080601f01602080910402602001604051908101604052809392919081815260200183838082843760009201919091525050509152509050610d3d82610cf36101808c018c615c85565b61139a84848484611abb565b6113a48483611b67565b50505050565b6113b2611aac565b6001600160a01b03166113c3610ebb565b6001600160a01b03161461140c576040805162461bcd60e51b81526020600482018190526024820152600080516020615ecb833981519152604482015290519081900360640190fd5b6001600160a01b0381166114515760405162461bcd60e51b8152600401808060200182810382526026815260200180615dc56026913960400191505060405180910390fd5b6033546040516001600160a01b038084169216907f8be0079c531659141344cd1fd0a4f28419497f9722a3daafe3b4186f6b6457e090600090a3603380546001600160a01b0319166001600160a01b0392909216919091179055565b60008151600014156114c1575060006114c8565b5060208101515b919050565b60008060016114e36114de88611f6f565b611ff2565b84878760405160008152602001604052604051808581526020018460ff1681526020018381526020018281526020019450505050506020604051602081039080840390855afa15801561153a573d6000803e3d6000fd5b5050604051601f1901519150506001600160a01b038116611596576040805162461bcd60e51b8152602060048201526011602482015270496e76616c6964207369676e617475726560781b604482015290519081900360640190fd5b866001600160a01b0316816001600160a01b03161491505095945050505050565b600082820183811015611611576040805162461bcd60e51b815260206004820152601b60248201527f536166654d6174683a206164646974696f6e206f766572666c6f770000000000604482015290519081900360640190fd5b90505b92915050565b60006116253061203e565b15905090565b600054610100900460ff1680611644575061164461161a565b80611652575060005460ff16155b61168d5760405162461bcd60e51b815260040180806020018281038252602e815260200180615e5a602e913960400191505060405180910390fd5b600054610100900460ff161580156116b8576000805460ff1961ff0019909116610100171660011790555b80156116ca576000805461ff00191690555b50565b600054610100900460ff16806116e657506116e661161a565b806116f4575060005460ff16155b61172f5760405162461bcd60e51b815260040180806020018281038252602e815260200180615e5a602e913960400191505060405180910390fd5b600054610100900460ff1615801561175a576000805460ff1961ff0019909116610100171660011790555b6000611764611aac565b603380546001600160a01b0319166001600160a01b038316908117909155604051919250906000907f8be0079c531659141344cd1fd0a4f28419497f9722a3daafe3b4186f6b6457e0908290a35080156116ca576000805461ff001916905550565b600054610100900460ff16806117df57506117df61161a565b806117ed575060005460ff16155b6118285760405162461bcd60e51b815260040180806020018281038252602e815260200180615e5a602e913960400191505060405180910390fd5b600054610100900460ff16158015611853576000805460ff1961ff0019909116610100171660011790555b6116b86040518060400160405280600881526020016745786368616e676560c01b815250604051806040016040528060018152602001601960f91b815250612044565b7f36c25de3e541d5d970f66e4210d728721220fff5c077cc6cd008b3a0c62adab782805190602001208280519060200120306118d0612105565b60405160200180868152602001858152602001848152602001836001600160a01b031681526020018281526020019550505050505060405160208183030381529060405280519060200120610194819055505050565b60976020527f4532fa16f071d6234e30e1a1e69b9806f04095edf37a1ca7a25c8d6af7861cc080546001600160a01b039283166001600160a01b0319918216179091557f30a684095c937b5aa064dcf94f9903a7d808e3efb22d8389dbd43080ad4ed3d5805493909216928116831790915563025ceed960e61b6000527f4b5822151ea34b7c8d9e37c3e466bcecb631efe6a9f26a4a4054110a93dd316f80549091169091179055565b600054610100900460ff16806119e957506119e961161a565b806119f7575060005460ff16155b611a325760405162461bcd60e51b815260040180806020018281038252602e815260200180615e5a602e913960400191505060405180910390fd5b600054610100900460ff16158015611a5d576000805460ff1961ff0019909116610100171660011790555b61016184905561016380546001600160a01b038086166001600160a01b03199283161790925561016280549285169290911691909117905580156113a4576000805461ff001916905550505050565b6000611ab661210f565b905090565b611ac5848461216b565b611acf828261216b565b60408401516001600160a01b031615611b1b5783604001516001600160a01b031682600001516001600160a01b031614611b1b5760405162461bcd60e51b8152600401610fcf90615b73565b60408201516001600160a01b0316156113a45783600001516001600160a01b031682604001516001600160a01b0316146113a45760405162461bcd60e51b8152600401610fcf90615a77565b600080611b748484612182565b915091506000611b838561221b565b90506000611b908561221b565b90506000611ba8878785604001518560400151612404565b9050600080611d096040518060a0016040528060405180604001604052808b8152602001876000015181525081526020018760000151815260200187602001518152602001609760008b600001516001600160e01b0319166001600160e01b031916815260200190815260200160002060009054906101000a90046001600160a01b03166001600160a01b031681526020018b600001516001600160a01b03168152506040518060a0016040528060405180604001604052808b8152602001886020015181525081526020018760000151815260200187602001518152602001609760008b600001516001600160e01b0319166001600160e01b031916815260200190815260200160002060009054906101000a90046001600160a01b03166001600160a01b031681526020018b600001516001600160a01b0316815250611d048a600001518a600001518e60e001518e60e001518c8c612584565b6125e7565b885191935091506001600160e01b0319166355575f5d60e11b1415611d985785516001600160e01b0319166355575f5d60e11b1415611d4757600080fd5b81341015611d675760405162461bcd60e51b8152600401610fcf90615bb6565b81341115611d9357611d93611d7c34846126f6565b611d84611aac565b6001600160a01b031690612753565b610d47565b85516001600160e01b0319166355575f5d60e11b1415610d475780341015611dd25760405162461bcd60e51b8152600401610fcf90615bb6565b80341115610d4757610d47611d7c34836126f6565b60e08101516000906001600160e01b031916632611a13360e11b1480611e1b575060e08201516001600160e01b0319908116145b15611e90578151602083015151611e31906127eb565b606084015151611e40906127eb565b846080015160405160200180856001600160a01b031681526020018481526020018381526020018281526020019450505050506040516020818303038152906040528051906020012090506114c8565b8151602083015151611ea1906127eb565b606084015151611eb0906127eb565b846080015185610100015160405160200180866001600160a01b0316815260200185815260200184815260200183815260200180602001828103825283818151815260200191508051906020019080838360005b83811015611f1c578181015183820152602001611f04565b50505050905090810190601f168015611f495780820380516001836020036101000a031916815260200191505b5096505050505050506040516020818303038152906040528051906020012090506114c8565b6000604051806080016040528060438152602001615d8260439139805190602001208260000151836020015184604001518051906020012060405160200180858152602001848152602001836001600160a01b03168152602001828152602001945050505050604051602081830303815290604052805190602001209050919050565b6000611ffc612855565b82604051602001808061190160f01b81525060020183815260200182815260200192505050604051602081830303815290604052805190602001209050919050565b3b151590565b600054610100900460ff168061205d575061205d61161a565b8061206b575060005460ff16155b6120a65760405162461bcd60e51b815260040180806020018281038252602e815260200180615e5a602e913960400191505060405180910390fd5b600054610100900460ff161580156120d1576000805460ff1961ff0019909116610100171660011790555b825160208085019190912083519184019190912060c99190915560ca558015612100576000805461ff00191690555b505050565b6000611ab661285c565b60003330141561216657600080368080601f0160208091040260200160405190810160405280939291908181526020018383808284376000920191909152505050503601516001600160a01b03169150610ec89050565b503390565b61217482612860565b61217e828261292a565b5050565b61218a614b01565b612192614b01565b6020840151516060840151516121a89190612bff565b80519092506001600160e01b0319166121d35760405162461bcd60e51b8152600401610fcf90615b47565b6060840151516020840151516121e99190612bff565b80519091506001600160e01b0319166122145760405162461bcd60e51b8152600401610fcf90615b47565b9250929050565b612223614b19565b60e08201516001600160e01b031916632611a13360e11b1415612264576000612250836101000151612c3f565b8051835260209081015190830152506123eb565b60e08201516001600160e01b0319166323d235ef60e01b14156122b1576000612291836101000151612c5b565b8051835260208082015190840152604090810151151590830152506123eb565b60e08201516001600160e01b031916632fa3cfd360e01b141561231e5760006122de836101000151612c77565b90506122ed8160000151612c93565b8252602081015160408201516123039190612cf5565b602083015260016040830152606090810151908201526123eb565b60e08201516001600160e01b031916630d8c66fb60e11b141561238257600061234b836101000151612e58565b905061235a8160000151612c93565b8252602081015160408201516123709190612cf5565b602083015250600060408201526123eb565b60e08201516001600160e01b0319908116141561239e576123eb565b6040805162461bcd60e51b815260206004820152601760248201527f556e6b6e6f776e204f7264657220646174612074797065000000000000000000604482015290519081900360640190fd5b8051516114c85781516123fd90612e74565b8152919050565b61240c614b43565b600061241786611de7565b9050600061242486611de7565b90506000612436886080015184612f0f565b90506000612448886080015184612f0f565b9050600061245a8a8a85858c8c612f34565b9050600081602001511180156124705750805115155b61248c5760405162461bcd60e51b8152600401610fcf90615ae7565b60808a0151156124df5787156124be5780516124a99084906115b7565b600086815261012f60205260409020556124df565b60208101516124ce9084906115b7565b600086815261012f60205260409020555b6080890151156125325786156125145760208101516124ff9083906115b7565b600085815261012f6020526040902055612532565b80516125219083906115b7565b600085815261012f60205260409020555b602081015181516040517f956cd63ee4cdcd81fda5f0ec7c6c36dceda99e1b412f4a650a5d26055dc3c4509261256d92899289929190615886565b60405180910390a19450505050505b949350505050565b61258c614b5d565b61259585612fbc565b81526125a18787613009565b816040019060028111156125b157fe5b908160028111156125be57fe5b815250506125d885858585856040015186600001516130da565b60208201529695505050505050565b825160209081015183519091015160018360400151600281111561260757fe5b141561265157612621858585600001518660200151613290565b915061264c84600001516000015185600001516020015186608001518860200151886060015161350c565b6126ee565b60028360400151600281111561266357fe5b14156126a85761267d848685600001518660200151613290565b905061264c85600001516000015186600001516020015187608001518760200151896060015161350c565b8451805160209182015160808801519287015160608901516126cb94919061350c565b8351805160209182015160808701519288015160608801516126ee94919061350c565b935093915050565b60008282111561274d576040805162461bcd60e51b815260206004820152601e60248201527f536166654d6174683a207375627472616374696f6e206f766572666c6f770000604482015290519081900360640190fd5b50900390565b6040516000906001600160a01b0384169083908381818185875af1925050503d806000811461279e576040519150601f19603f3d011682016040523d82523d6000602084013e6127a3565b606091505b5050905080612100576040805162461bcd60e51b815260206004820152600f60248201526e1d1c985b9cd9995c8819985a5b1959608a1b604482015290519081900360640190fd5b8051602091820151805190830120604080517f452a0dc408cb0d27ffc3b3caff933a5208040a53a9dbecd8d89cad2c0d40e00c818601526001600160e01b031990931683820152606080840192909252805180840390920182526080909201909152805191012090565b6101945490565b4690565b60a081015115806128745750428160a00151105b6128c5576040805162461bcd60e51b815260206004820152601d60248201527f4f726465722073746172742076616c69646174696f6e206661696c6564000000604482015290519081900360640190fd5b60c081015115806128d95750428160c00151115b6116ca576040805162461bcd60e51b815260206004820152601b60248201527f4f7264657220656e642076616c69646174696f6e206661696c65640000000000604482015290519081900360640190fd5b60808201516129c85781516001600160a01b0316156129af5781516001600160a01b0316612956611aac565b6001600160a01b0316146129aa576040805162461bcd60e51b815260206004820152601660248201527536b0b5b2b91034b9903737ba103a3c1039b2b73232b960511b604482015290519081900360640190fd5b6129c3565b6129b7611aac565b6001600160a01b031682525b61217e565b81516001600160a01b03166129db611aac565b6001600160a01b03161461217e5760006129f483613690565b90506000825160411415612a1857612a1583612a0f84613780565b9061378a565b90505b83516001600160a01b03828116911614612bb8578351612a40906001600160a01b031661203e565b15612b7c578351630b135d3f60e11b906001600160a01b0316631626ba7e612a6785613780565b866040518363ffffffff1660e01b81526004018083815260200180602001828103825283818151815260200191508051906020019080838360005b83811015612aba578181015183820152602001612aa2565b50505050905090810190601f168015612ae75780820380516001836020036101000a031916815260200191505b50935050505060206040518083038186803b158015612b0557600080fd5b505afa158015612b19573d6000803e3d6000fd5b505050506040513d6020811015612b2f57600080fd5b50516001600160e01b03191614612b775760405162461bcd60e51b815260040180806020018281038252602b815260200180615e2f602b913960400191505060405180910390fd5b612bb3565b60405162461bcd60e51b8152600401808060200182810382526022815260200180615e0d6022913960400191505060405180910390fd5b6113a4565b83516001600160a01b03166113a4576040805162461bcd60e51b815260206004820152600860248201526737379036b0b5b2b960c11b604482015290519081900360640190fd5b612c07614b01565b6000612c138484613800565b80519091506001600160e01b031916612c3857612c308385613800565b915050611614565b9050611614565b612c47614b88565b81806020019051810190611614919061546a565b612c63614ba2565b8180602001905181019061161491906154f6565b612c7f614bc5565b818060200190518101906116149190615600565b60608082156116145760408051600180825281830190925290816020015b612cb9614bf7565b815260200190600190039081612cb1579050509050612cd783613a1c565b81600081518110612ce457fe5b602002602001018190525092915050565b606080600084118015612d085750600083115b15612d83576040805160028082526060820190925290816020015b612d2b614bf7565b815260200190600190039081612d23579050509050612d4984613a1c565b81600081518110612d5657fe5b6020026020010181905250612d6a83613a1c565b81600181518110612d7757fe5b60200260200101819052505b600084118015612d91575082155b15612dea5760408051600180825281830190925290816020015b612db3614bf7565b815260200190600190039081612dab579050509050612dd184613a1c565b81600081518110612dde57fe5b60200260200101819052505b83158015612df85750600083115b156116115760408051600180825281830190925290816020015b612e1a614bf7565b815260200190600190039081612e12579050509050612e3883613a1c565b81600081518110612e4557fe5b6020026020010181905250905092915050565b612e60614c0e565b8180602001905181019061161491906155a2565b60408051600180825281830190925260609160009190816020015b612e97614bf7565b815260200190600190039081612e8f5790505090508281600081518110612eba57fe5b6020026020010151600001906001600160a01b031690816001600160a01b03168152505061271081600081518110612eee57fe5b6020908102919091018101516001600160601b039092169101529050919050565b600082612f1e57506000611614565b50600090815261012f6020526040902054919050565b612f3c614b43565b600080612f4a898887613a44565b91509150600080612f5c8a8988613a44565b9150915083811115612f8f57612f8484848c60200151602001518d6060015160200151613abd565b945050505050612fb2565b612fab8b60200151602001518c60600151602001518484613b42565b9450505050505b9695505050505050565b60006001600160e01b03198216632fa3cfd360e01b1480612fed57506001600160e01b03198216630d8c66fb60e11b145b1561300157612ffa613bc8565b90506114c8565b506000919050565b60006001600160e01b031983166355575f5d60e11b141561302c57506001611614565b6001600160e01b031982166355575f5d60e11b141561304d57506002611614565b6001600160e01b031983166322ba176160e21b141561306e57506001611614565b6001600160e01b031982166322ba176160e21b141561308f57506002611614565b6001600160e01b0319831663025ceed960e61b14156130b057506001611614565b6001600160e01b0319821663025ceed960e61b14156130d157506002611614565b50600092915050565b60006001600160e01b03198716632fa3cfd360e01b1480159061310e57506001600160e01b03198616632fa3cfd360e01b14155b801561312b57506001600160e01b03198716630d8c66fb60e11b14155b801561314857506001600160e01b03198616630d8c66fb60e11b14155b1561315557506000612fb2565b600061316a8387602001518760200151613bcf565b90506000600185600281111561317c57fe5b14156131d9575060608501516001600160e01b03198916630d8c66fb60e11b1480156131b857506001600160e01b03198816632fa3cfd360e01b145b6131d45760405162461bcd60e51b8152600401610fcf906159bd565b61324a565b60028560028111156131e757fe5b141561323f575060608601516001600160e01b03198816630d8c66fb60e11b14801561322357506001600160e01b03198916632fa3cfd360e01b145b6131d45760405162461bcd60e51b8152600401610fcf90615a4f565b600092505050612fb2565b60008111801561325a5750818110155b801561326857506103e88111155b6132845760405162461bcd60e51b8152600401610fcf90615a29565b98975050505050505050565b60006132aa85600001516020015184876040015185613c59565b905060006132d4828760000151602001518860800151878a60000151600001518b60600151613cb9565b865180518751516020808a015193015160808b015160608c0151959650613302959394929387929190613d7f565b9050856040015151600114801561331e57508460400151516001145b80156133735750856040015160008151811061333657fe5b6020026020010151600001516001600160a01b0316856040015160008151811061335c57fe5b6020026020010151600001516001600160a01b0316145b1561348957604080516001808252818301909252600091816020015b613397614bf7565b81526020019060019003908161338f57905050905085604001516000815181106133bd57fe5b602002602001015160000151816000815181106133d657fe5b60209081029190910101516001600160a01b039091169052604087015180516000906133fe57fe5b602002602001015160200151866040015160008151811061341b57fe5b602002602001015160200151018160008151811061343557fe5b6020026020010151602001906001600160601b031690816001600160601b03168152505061347f87600001516000015183896000015160200151848b608001518c60600151613e84565b5091506134e29050565b6134b38660000151600001518288600001516020015189604001518a608001518b60600151613e84565b5086518051602090910151604088015160808a015160608b01519495506134de948693929190613e84565b5090505b61350386600001516000015182886080015188602001518a6060015161350c565b50949350505050565b600082511161352d5760405162461bcd60e51b8152600401610fcf906159e5565b600084815b60018551038110156135fc57600061357386838151811061354f57fe5b6020026020010151602001516001600160601b031689613f3990919063ffffffff16565b90506135a886838151811061358457fe5b6020026020010151602001516001600160601b0316856115b790919063ffffffff16565b935080156135f3576135ba83826126f6565b92506135f360405180604001604052808b815260200183815250888885815181106135e157fe5b60200260200101516000015188613f51565b50600101613532565b5060008460018651038151811061360f57fe5b6020026020010151905061363981602001516001600160601b0316846115b790919063ffffffff16565b9250826127101461365c5760405162461bcd60e51b8152600401610fcf90615b10565b81156136865761368660405180604001604052808a81526020018481525087836000015187613f51565b5050505050505050565b60007f477ed43b8020849b755512278536c3766a3b4ab547519949a75f483372493f8d82600001516136c58460200151614339565b84604001516136d78660600151614339565b86608001518760a001518860c001518960e001518a610100015180519060200120604051602001808b81526020018a6001600160a01b03168152602001898152602001886001600160a01b03168152602001878152602001868152602001858152602001848152602001836001600160e01b03191681526020018281526020019a5050505050505050505050604051602081830303815290604052805190602001209050919050565b6000611ffc6143a9565b600081516041146137e2576040805162461bcd60e51b815260206004820152601f60248201527f45434453413a20696e76616c6964207369676e6174757265206c656e67746800604482015290519081900360640190fd5b60208201516040830151606084015160001a612fb2868285856143e4565b613808614b01565b825182516001600160e01b031982166355575f5d60e11b1415613873576001600160e01b031981166355575f5d60e11b1415613848578492505050611614565b5050604080518082018252600080825282516020818101909452908152918101919091529050611614565b6001600160e01b031982166322ba176160e21b14156138b8576001600160e01b031981166322ba176160e21b1415613848576138af858561463a565b92505050611614565b6001600160e01b031982166339d690a360e11b14156138f4576001600160e01b031981166339d690a360e11b1415613848576138af858561463a565b6001600160e01b0319821663025ceed960e61b1415613930576001600160e01b0319811663025ceed960e61b1415613848576138af858561463a565b6001600160e01b031982166000908152606560205260409020546001600160a01b031680156139e5576040516306d3f7cb60e41b81526001600160a01b03821690636d3f7cb0906139879089908990600401615c03565b60006040518083038186803b15801561399f57600080fd5b505afa1580156139b3573d6000803e3d6000fd5b505050506040513d6000823e601f3d908101601f191682016040526139db91908101906153df565b9350505050611614565b6001600160e01b03198381169083161415613a04576139db868661463a565b60405162461bcd60e51b8152600401610fcf90615921565b613a24614bf7565b81156114c8576001600160a01b038216815260a09190911c602082015290565b6000808215613a83576020808601510151613a5f90856126f6565b9150613a7c85606001516020015186602001516020015184614697565b90506126ee565b606085015160200151613a9690856126f6565b9050613ab385602001516020015186606001516020015183614697565b9150935093915050565b613ac5614b43565b6000613ad2858585614697565b905085811115613b29576040805162461bcd60e51b815260206004820152601860248201527f66696c6c4c6566743a20756e61626c6520746f2066696c6c0000000000000000604482015290519081900360640190fd5b5050604080518082019091529384525050602082015290565b613b4a614b43565b6000613b57838787614697565b905083811115613bae576040805162461bcd60e51b815260206004820152601960248201527f66696c6c52696768743a20756e61626c6520746f2066696c6c00000000000000604482015290519081900360640190fd5b604080518082019091529283526020830152509392505050565b6101615490565b600083815b8451811015613c0f57848181518110613be957fe5b6020026020010151602001516001600160601b0316820191508080600101915050613bd4565b5060005b8351811015613c4e57838181518110613c2857fe5b6020026020010151602001516001600160601b0316820191508080600101915050613c13565b5090505b9392505050565b60008115613c6857508361257c565b6000613c7e613c778787613f39565b87906115b7565b905060005b8451811015613caf57613ca5613c9e86838151811061354f57fe5b83906115b7565b9150600101613c83565b5095945050505050565b6000806000613cc98989886146f5565b90925090508015613d735784516000906001600160e01b0319166322ba176160e21b1415613d10578560200151806020019051810190613d099190614fc6565b9050613d49565b85516001600160e01b03191663025ceed960e61b1415613d495760008660200151806020019051810190613d4491906151d2565b509150505b613d7160405180604001604052808881526020018481525089613d6b84614717565b88613f51565b505b50979650505050505050565b600080613d8b88614756565b905080516001148015613d9f575086516001145b8015613dec575086600081518110613db357fe5b6020026020010151600001516001600160a01b031681600081518110613dd557fe5b6020026020010151600001516001600160a01b0316145b15613e3d5761138881600081518110613e0157fe5b6020026020010151602001516001600160601b03161115613e345760405162461bcd60e51b8152600401610fcf90615958565b85915050613e79565b600080613e4e8b8989868a8a613e84565b91509150611388811115613e745760405162461bcd60e51b8152600401610fcf90615958565b509150505b979650505050505050565b846000805b8551811015613f2d57613ec5868281518110613ea157fe5b6020026020010151602001516001600160601b0316836115b790919063ffffffff16565b91506000613ef48489898581518110613eda57fe5b6020026020010151602001516001600160601b03166146f5565b90945090508015613f2457613f2460405180604001604052808c815260200183815250878985815181106135e157fe5b50600101613e89565b50965096945050505050565b6000611611612710613f4b85856148cb565b90614924565b8351516001600160e01b0319166339d690a360e11b141561409757600080856000015160200151806020019051810190613f8b91906151d2565b915091508560200151600114613fb35760405162461bcd60e51b8152600401610fcf90615abb565b6001600160a01b03851630141561402b57604051632142170760e11b81526001600160a01b038316906342842e0e90613ff490309088908690600401615808565b600060405180830381600087803b15801561400e57600080fd5b505af1158015614022573d6000803e3d6000fd5b50505050614090565b604051637b84dc8360e11b81526001600160a01b0384169063f709b9069061405d9085908990899087906004016158f7565b600060405180830381600087803b15801561407757600080fd5b505af115801561408b573d6000803e3d6000fd5b505050505b50506113a4565b8351516001600160e01b0319166322ba176160e21b14156141da5760008460000151602001518060200190518101906140d09190614fc6565b90506001600160a01b03841630141561416c57602085015160405163a9059cbb60e01b81526001600160a01b0383169163a9059cbb91614114918791600401615864565b602060405180830381600087803b15801561412e57600080fd5b505af1158015614142573d6000803e3d6000fd5b505050506040513d601f19601f82011682018060405250810190614166919061533c565b506141d4565b602085015160405163776062c360e01b81526001600160a01b0384169163776062c3916141a1918591899189916004016158f7565b600060405180830381600087803b1580156141bb57600080fd5b505af11580156141cf573d6000803e3d6000fd5b505050505b506113a4565b8351516001600160e01b03191663025ceed960e61b14156142975760008085600001516020015180602001905181019061421491906151d2565b90925090506001600160a01b03851630141561425f576020860151604051637921219560e11b81526001600160a01b0384169163f242432a91613ff49130918991879160040161582c565b6020860151604051639c1c2ee960e01b81526001600160a01b03851691639c1c2ee99161405d9186918a918a918891906004016158b4565b8351516001600160e01b0319166355575f5d60e11b14156142db576001600160a01b0382163014612bb3576020840151612bb3906001600160a01b03841690612753565b6040516354bc0cf160e01b81526001600160a01b038216906354bc0cf19061430b90879087908790600401615c28565b600060405180830381600087803b15801561432557600080fd5b505af1158015613686573d6000803e3d6000fd5b60007fdb6f72e915676cfc289da13bc4ece054fd17b1df6d77ffc4a60510718c236b0861436983600001516127eb565b8360200151604051602001808481526020018381526020018281526020019350505050604051602081830303815290604052805190602001209050919050565b6000611ab67f8b73c3c69bb8fe3d512ecc4cf759cc79239f7b179b0ffacaa9a75d522b39400f6143d761498b565b6143df614991565b614997565b60007f7fffffffffffffffffffffffffffffff5d576e7357a4501ddfe92f46681b20a08211156144455760405162461bcd60e51b8152600401808060200182810382526022815260200180615deb6022913960400191505060405180910390fd5b6000601e8560ff16111561451f576004850360ff16601b148061446e57506004850360ff16601c145b6144a95760405162461bcd60e51b8152600401808060200182810382526022815260200180615e886022913960400191505060405180910390fd5b60016144b4876149f9565b60048703868660405160008152602001604052604051808581526020018460ff1681526020018381526020018281526020019450505050506020604051602081039080840390855afa15801561450e573d6000803e3d6000fd5b5050506020604051035190506145d6565b8460ff16601b148061453457508460ff16601c145b61456f5760405162461bcd60e51b8152600401808060200182810382526022815260200180615e886022913960400191505060405180910390fd5b60018686868660405160008152602001604052604051808581526020018460ff1681526020018381526020018281526020019450505050506020604051602081039080840390855afa1580156145c9573d6000803e3d6000fd5b5050506020604051035190505b6001600160a01b038116614631576040805162461bcd60e51b815260206004820152601860248201527f45434453413a20696e76616c6964207369676e61747572650000000000000000604482015290519081900360640190fd5b95945050505050565b614642614b01565b6020808401518051908201208382015180519201919091208082141561466c578492505050611614565b5050604080518082018252600080825282516020808201909452908152918101919091529392505050565b60006146a4848484614a4a565b156146e7576040805162461bcd60e51b815260206004820152600e60248201526d3937bab73234b7339032b93937b960911b604482015290519081900360640190fd5b61257c83613f4b86856148cb565b60008061470b856147068686613f39565b614ad9565b91509150935093915050565b6001600160a01b038082166000908152610164602052604081205490911680156147425790506114c8565b5050610163546001600160a01b0316919050565b80516060906001600160e01b03191663025ceed960e61b148061478a575081516001600160e01b0319166339d690a360e11b145b156148405760008083602001518060200190518101906147aa91906151d2565b61016254604051634e53ee3d60e11b81529294509092506001600160a01b031690639ca7dc7a906147e19085908590600401615864565b600060405180830381600087803b1580156147fb57600080fd5b505af115801561480f573d6000803e3d6000fd5b505050506040513d6000823e601f3d908101601f19168201604052614837919081019061530a565b925050506114c8565b81516001600160e01b03191662737ea960e61b141561488157600082602001518060200190518101906148739190614fe2565b6080015192506114c8915050565b81516001600160e01b03191663d8f960c160e01b14156148c357600082602001518060200190518101906148b591906150df565b6060015192506114c8915050565b506060919050565b6000826148da57506000611614565b828202828482816148e757fe5b04146116115760405162461bcd60e51b8152600401808060200182810382526021815260200180615eaa6021913960400191505060405180910390fd5b600080821161497a576040805162461bcd60e51b815260206004820152601a60248201527f536166654d6174683a206469766973696f6e206279207a65726f000000000000604482015290519081900360640190fd5b81838161498357fe5b049392505050565b60c95490565b60ca5490565b60008383836149a461285c565b3060405160200180868152602001858152602001848152602001838152602001826001600160a01b03168152602001955050505050506040516020818303038152906040528051906020012090509392505050565b604080517f19457468657265756d205369676e6564204d6573736167653a0a333200000000602080830191909152603c8083019490945282518083039094018452605c909101909152815191012090565b600082614a91576040805162461bcd60e51b815260206004820152601060248201526f6469766973696f6e206279207a65726f60801b604482015290519081900360640190fd5b811580614a9c575083155b15614aa957506000613c52565b60008380614ab357fe5b8584099050614ac285846148cb565b614ace826103e86148cb565b101595945050505050565b60008082841115614af857614aee84846126f6565b9150829050612214565b50600093915050565b60408051808201909152600081526060602082015290565b60405180608001604052806060815260200160608152602001600015158152602001600081525090565b604051806040016040528060008152602001600081525090565b6040518060600160405280600081526020016000815260200160006002811115614b8357fe5b905290565b604051806040016040528060608152602001606081525090565b604051806060016040528060608152602001606081526020016000151581525090565b6040518060a0016040528060008152602001600081526020016000815260200160008152602001600080191681525090565b604080518082019091526000808252602082015290565b6040518060800160405280600081526020016000815260200160008152602001600080191681525090565b80356114c881615d56565b600082601f830112614c54578081fd5b81516020614c69614c6483615cec565b615cc9565b82815281810190858301855b85811015614c9e57614c8c898684518b0101614dcd565b84529284019290840190600101614c75565b5090979650505050505050565b600082601f830112614cbb578081fd5b81516020614ccb614c6483615cec565b82815281810190858301604080860288018501891015614ce9578687fd5b865b86811015614d585781838b031215614d01578788fd5b81518281018181106001600160401b0382111715614d1b57fe5b83528351614d2881615d56565b8152838701516001600160601b0381168114614d4257898afd5b8188015285529385019391810191600101614ceb565b509198975050505050505050565b805180151581146114c857600080fd5b80356114c881615d6b565b600082601f830112614d91578081fd5b8135614d9f614c6482615d09565b818152846020838601011115614db3578283fd5b816020850160208301379081016020019190915292915050565b600082601f830112614ddd578081fd5b8151614deb614c6482615d09565b818152846020838601011115614dff578283fd5b61257c826020830160208701615d2a565b60006040808385031215614e22578182fd5b80518181016001600160401b038282108183111715614e3d57fe5b818452829450853581811115614e5257600080fd5b8601808803851315614e6357600080fd5b608084018381108382111715614e7557fe5b909452833593614e8485615d6b565b93825260208401359381851115614e9a57600080fd5b614ea688868301614d81565b60608501525050815260209384013593019290925292915050565b6000610120808385031215614ed4578182fd5b614edd81615cc9565b915050614ee982614c39565b815260208201356001600160401b0380821115614f0557600080fd5b614f1185838601614e10565b6020840152614f2260408501614c39565b60408401526060840135915080821115614f3b57600080fd5b614f4785838601614e10565b60608401526080840135608084015260a084013560a084015260c084013560c0840152614f7660e08501614d76565b60e084015261010091508184013581811115614f9157600080fd5b614f9d86828701614d81565b8385015250505092915050565b600060208284031215614fbb578081fd5b813561161181615d56565b600060208284031215614fd7578081fd5b815161161181615d56565b60008060408385031215614ff4578081fd5b8251614fff81615d56565b60208401519092506001600160401b038082111561501b578283fd5b9084019060c0828703121561502e578283fd5b61503860c0615cc9565b8251815260208301518281111561504d578485fd5b61505988828601614dcd565b6020830152506040830151604082015260608301518281111561507a578485fd5b61508688828601614cab565b60608301525060808301518281111561509d578485fd5b6150a988828601614cab565b60808301525060a0830151828111156150c0578485fd5b6150cc88828601614c44565b60a0830152508093505050509250929050565b600080604083850312156150f1578182fd5b82516150fc81615d56565b60208401519092506001600160401b0380821115615118578283fd5b9084019060a0828703121561512b578283fd5b61513560a0615cc9565b8251815260208301518281111561514a578485fd5b61515688828601614dcd565b60208301525060408301518281111561516d578485fd5b61517988828601614cab565b604083015250606083015182811115615190578485fd5b61519c88828601614cab565b6060830152506080830151828111156151b3578485fd5b6151bf88828601614c44565b6080830152508093505050509250929050565b600080604083850312156151e4578182fd5b82516151ef81615d56565b6020939093015192949293505050565b60008060408385031215615211578182fd5b823561521c81615d56565b9150602083013561522c81615d56565b809150509250929050565b600080600080600060a0868803121561524e578081fd5b853561525981615d56565b9450602086013561526981615d56565b935060408601359250606086013561528081615d56565b9150608086013561529081615d56565b809150509295509295909350565b600080600080600060a086880312156152b5578283fd5b85356152c081615d56565b945060208601356001600160401b038111156152da578384fd5b6152e688828901614d81565b9450506040860135925060608601359150608086013560ff81168114615290578182fd5b60006020828403121561531b578081fd5b81516001600160401b03811115615330578182fd5b61257c84828501614cab565b60006020828403121561534d578081fd5b61161182614d66565b600060208284031215615367578081fd5b5035919050565b60006020828403121561537f578081fd5b813561161181615d6b565b6000806040838503121561539c578182fd5b823561521c81615d6b565b6000602082840312156153b8578081fd5b81356001600160401b038111156153cd578182fd5b82016101808185031215611611578182fd5b6000602082840312156153f0578081fd5b81516001600160401b0380821115615406578283fd5b9083019060408286031215615419578283fd5b60405160408101818110838211171561542e57fe5b604052825161543c81615d6b565b815260208301518281111561544f578485fd5b61545b87828601614dcd565b60208301525095945050505050565b60006020828403121561547b578081fd5b81516001600160401b0380821115615491578283fd5b90830190604082860312156154a4578283fd5b6040516040810181811083821117156154b957fe5b6040528251828111156154ca578485fd5b6154d687828601614cab565b8252506020830151828111156154ea578485fd5b61545b87828601614cab565b600060208284031215615507578081fd5b81516001600160401b038082111561551d578283fd5b9083019060608286031215615530578283fd5b60405160608101818110838211171561554557fe5b604052825182811115615556578485fd5b61556287828601614cab565b825250602083015182811115615576578485fd5b61558287828601614cab565b60208301525061559460408401614d66565b604082015295945050505050565b6000608082840312156155b3578081fd5b604051608081018181106001600160401b03821117156155cf57fe5b8060405250825181526020830151602082015260408301516040820152606083015160608201528091505092915050565b600060a08284031215615611578081fd5b60405160a081018181106001600160401b038211171561562d57fe5b806040525082518152602083015160208201526040830151604082015260608301516060820152608083015160808201528091505092915050565b600060208284031215615679578081fd5b81356001600160401b0381111561568e578182fd5b61257c84828501614ec1565b600080600080608085870312156156af578182fd5b84356001600160401b03808211156156c5578384fd5b6156d188838901614ec1565b955060208701359150808211156156e6578384fd5b6156f288838901614d81565b94506040870135915080821115615707578384fd5b61571388838901614ec1565b93506060870135915080821115615728578283fd5b5061573587828801614d81565b91505092959194509250565b600060208284031215615752578081fd5b81356001600160401b03811115615767578182fd5b82016101a08185031215611611578182fd5b60006020828403121561578a578081fd5b81356001600160401b0381168114611611578182fd5b600081518084526157b8816020860160208601615d2a565b601f01601f19169290920160200192915050565b600063ffffffff60e01b825116835260208201516040602085015261257c60408501826157a0565b6001600160a01b0391909116815260200190565b6001600160a01b039384168152919092166020820152604081019190915260600190565b6001600160a01b0394851681529290931660208301526040820152606081019190915260a06080820181905260009082015260c00190565b6001600160a01b03929092168252602082015260400190565b90815260200190565b93845260208401929092526040830152606082015260800190565b60006020825261161160208301846157a0565b6001600160a01b03958616815293851660208501529190931660408301526060820192909252608081019190915260c060a0820181905260009082015260e00190565b6001600160a01b039485168152928416602084015292166040820152606081019190915260800190565b60208082526017908201527f6e6f7420666f756e64204941737365744d617463686572000000000000000000604082015260600190565b6020808252601d908201527f526f79616c746965732061726520746f6f206869676820283e35302529000000604082015260600190565b6020808252601490820152730c081cd85b1d0818d85b89dd081899481d5cd95960621b604082015260600190565b6020808252600e908201526d77726f6e6720563320747970653160901b604082015260600190565b60208082526024908201527f7472616e736665725061796f7574733a206e6f7468696e6720746f207472616e60408201526339b332b960e11b606082015260800190565b6020808252600c908201526b77726f6e67206d617846656560a01b604082015260600190565b6020808252600e908201526d3bb937b733902b19903a3cb8329960911b604082015260600190565b60208082526024908201527f72696768744f726465722e74616b657220766572696669636174696f6e2066616040820152631a5b195960e21b606082015260800190565b60208082526012908201527132b9319b9918903b30b63ab29032b93937b960711b604082015260600190565b6020808252600f908201526e1b9bdd1a1a5b99c81d1bc8199a5b1b608a1b604082015260600190565b6020808252601e908201527f53756d207061796f75747320427073206e6f7420657175616c20313030250000604082015260600190565b6020808252601290820152710c2e6e6cae8e640c8dedc4ee840dac2e8c6d60731b604082015260600190565b60208082526023908201527f6c6566744f726465722e74616b657220766572696669636174696f6e206661696040820152621b195960ea1b606082015260800190565b6020808252600e908201526d0dcdee840cadcdeeaced040cae8d60931b604082015260600190565b6020808252600b908201526a3737ba10309036b0b5b2b960a91b604082015260600190565b600060408252615c1660408301856157cc565b828103602084015261463181856157cc565b600060608252845160406060840152615c4460a08401826157cc565b60209687015160808501526001600160a01b03958616968401969096525050911660409091015290565b9182526001600160401b0316602082015260400190565b6000808335601e19843603018112615c9b578283fd5b8301803591506001600160401b03821115615cb4578283fd5b60200191503681900382131561221457600080fd5b6040518181016001600160401b0381118282101715615ce457fe5b604052919050565b60006001600160401b03821115615cff57fe5b5060209081020190565b60006001600160401b03821115615d1c57fe5b50601f01601f191660200190565b60005b83811015615d45578181015183820152602001615d2d565b838111156113a45750506000910152565b6001600160a01b03811681146116ca57600080fd5b6001600160e01b0319811681146116ca57600080fdfe4d6574615472616e73616374696f6e2875696e74323536206e6f6e63652c616464726573732066726f6d2c62797465732066756e6374696f6e5369676e6174757265294f776e61626c653a206e6577206f776e657220697320746865207a65726f206164647265737345434453413a20696e76616c6964207369676e6174757265202773272076616c75656f72646572207369676e617475726520766572696669636174696f6e206572726f72636f6e7472616374206f72646572207369676e617475726520766572696669636174696f6e206572726f72496e697469616c697a61626c653a20636f6e747261637420697320616c726561647920696e697469616c697a656445434453413a20696e76616c6964207369676e6174757265202776272076616c7565536166654d6174683a206d756c7469706c69636174696f6e206f766572666c6f774f776e61626c653a2063616c6c6572206973206e6f7420746865206f776e65725369676e657220616e64207369676e617475726520646f206e6f74206d61746368a264697066735822122044100ed7f852686ce2d34293e5594f01a44330f75935065517cb9111232bdb8664736f6c63430007060033",
  "immutableReferences": {},
  "source": "// SPDX-License-Identifier: MIT\n\npragma solidity 0.7.6;\npragma abicoder v2;\n\nimport \"./ExchangeV2Core.sol\";\nimport \"@rarible/meta-tx/contracts/EIP712MetaTransaction.sol\";\nimport \"@rarible/transfer-manager/contracts/RaribleTransferManager.sol\";\n\ncontract ExchangeMetaV2 is ExchangeV2Core, RaribleTransferManager, EIP712MetaTransaction {\n    function __ExchangeV2_init(\n        address _transferProxy,\n        address _erc20TransferProxy,\n        uint newProtocolFee,\n        address newDefaultFeeReceiver,\n        IRoyaltiesProvider newRoyaltiesProvider\n    ) external initializer {\n        __Context_init_unchained();\n        __Ownable_init_unchained();\n        __OrderValidator_init_unchained();\n        __MetaTransaction_init_unchained(\"ExchangeMetaV2\", \"1\");\n        __TransferExecutor_init_unchained(_transferProxy, _erc20TransferProxy);\n        __RaribleTransferManager_init_unchained(newProtocolFee, newDefaultFeeReceiver, newRoyaltiesProvider);\n    }\n\n    function _msgSender() internal view virtual override(ContextUpgradeable, EIP712MetaTransaction) returns (address payable) {\n        return super._msgSender();\n    }\n\n    function getProtocolFee() internal override view returns(uint) {\n        return protocolFee;\n    }\n\n}\n",
  "sourcePath": "/Users/aardvocate/src/rarible/protocol-contracts/exchange-v2/contracts/ExchangeMetaV2.sol",
  "compiler": {
    "name": "solc",
    "version": "0.7.6+commit.7338295f.Emscripten.clang"
  },
  "schemaVersion": "3.4.1",
  "updatedAt": "2022-08-01T22:42:56.889Z",
  "devdoc": {
    "kind": "dev",
    "methods": {
      "directAcceptBid((uint256,uint256,uint256,uint256,uint256,address,bytes4,bytes,bytes,bytes,bytes,bytes))": {
        "details": "function, generate sellOrder and buyOrder from parameters and call validateAndMatch() for accept bid transaction",
        "params": {
          "direct": "struct with parameters for accept bid operation"
        }
      },
      "directPurchase((uint256,uint256,uint256,uint256,uint256,address,bytes4,bytes4,bytes,bytes,bytes,bytes,bytes))": {
        "details": "function, generate sellOrder and buyOrder from parameters and call validateAndMatch() for purchase transaction",
        "params": {
          "direct": "struct with parameters for purchase operation"
        }
      },
      "owner()": {
        "details": "Returns the address of the current owner."
      },
      "renounceOwnership()": {
        "details": "Leaves the contract without owner. It will not be possible to call `onlyOwner` functions anymore. Can only be called by the current owner. NOTE: Renouncing ownership will leave the contract without an owner, thereby removing any functionality that is only available to the owner."
      },
      "transferOwnership(address)": {
        "details": "Transfers ownership of the contract to a new account (`newOwner`). Can only be called by the current owner."
      }
    },
    "version": 1
  },
  "userdoc": {
    "kind": "user",
    "methods": {},
    "version": 1
  }
}